:020000040800F2
:100000000000022089770008D9770008D977000816
:10001000D9770008D9770008D977000800000000D8
:10002000000000000000000000000000A1730008B4
:10003000D977000800000000317400087B24000814
:10004000D9770008D9770008D9770008D977000850
:10005000D9770008D9770008D9770008D977000840
:10006000D9770008D9770008D9770008D977000830
:10007000D97700088D3D0008D9770008913D000828
:10008000D9770008D9770008D9770008F10400086B
:10009000FD040008D9770008D9770008D97700084F
:1000A000D9770008D9770008D9770008D9770008F0
:1000B000493300085933000869330008D97700082C
:1000C000D9770008D9770008D9770008D9770008D0
:1000D000D9770008453D0008513D00085D3D000806
:1000E000D9770008D9770008D9770008D9770008B0
:1000F000D9770008D9770008D9770008D9770008A0
:10010000D9770008D9770008D9770008D97700088F
:10011000693D0008753D0008D9770008D9770008C7
:10012000D9770008D9770008D9770008D97700086F
:10013000D977000800000000000000000105000859
:100140000D050008D9770008D9770008D97700088D
:10015000D9770008D9770008D9770008813D0008D1
:10016000D9770008D9770008D9770008D97700082F
:10017000D9770008D97700080000000000000000CF
:08018000D9770008D9770008C7
:1001900010B5054C237833B9044B13B10448AFF3C1
:1001A00000800123237010BD7800002000000000B3
:1001B000A0A0000808B5034B1BB103490348AFF3E7
:1001C000008008BD000000007C000020A0A0000806
:1001D000D0F8F83010B50446E3B1F83004F030FC44
:1001E000D4F8F820C4F840019369C4F84431516848
:1001F000C4F848119168C4F84C11D268C4F8502171
:10020000C3F3021284F864211A0C1B0E84F86621D1
:1002100084F8653110BD000010B5D0F8F830154AEB
:1002200093428AB0044620D1002305930023012283
:10023000694604F1F800CDE90632CDE90033CDE995
:100240000233CDE90823049304F0FAF884F8680136
:100250002046FFF7BDFF04F5B673C4F8283104F556
:10026000C473C4F82C310AB010BD034A9342DDD1E7
:100270000E23DAE7006400400068004070B50623F2
:1002800000254FF48032C0E93F354FF44013C0E9F8
:1002900042230123C0E9453300F5B673C0F8283185
:1002A00000F1F80600F5C4730446C0F8F810C0F871
:1002B0002C31C0E94755C0F80451C0F81051C0F8BE
:1002C0002451304604F038F984F867012046FFF7DE
:1002D0007FFF2046FFF7A0FF2946304604F066FA6C
:1002E0002046BDE87040FFF773BF000010B50368FB
:1002F000384A93428AB036D1374B002401941A6CA5
:1003000042F000721A641A6C02F000720192019AB3
:1003100002941A6B42F001021A631B6B079403F0FC
:1003200001030293029B4FF4C05002234FF0030CD1
:10033000CDE9050305A909232848CDE908C304F040
:100340009DFC22460721132004F08EFB132004F0AD
:10035000BDFB14202246062104F086FB142004F085
:10036000B5FB0AB010BD1E4A9342FAD11A4B1D4884
:10037000002403941A6C42F080621A641A6C02F032
:1003800080620392039A04941A6B42F002021A6389
:100390001B6B079403F0020304934FF44052049B39
:1003A0000223CDE9052303210923CDE9081305A97B
:1003B00004F064FC224607213F2004F055FB3F2057
:1003C00004F084FB40202246062104F04DFB40202F
:1003D000C5E700BF00640040003802400000024052
:1003E000006800400004024038B50446D0F82801F7
:1003F0000D4611461A460023C0E90233026105602A
:10040000143009F075F90A21C4F8585104F1F800C4
:1004100004F028F900280CBF01230023C4F83C3164
:1004200008BFD4F8603184F8690108BF0133204661
:1004300008BFC4F86031FFF7CBFE94F8690138BDFE
:10044000204B984270B5044602D01F4B98421CD1F5
:10045000A4F1F800626B01211368C0F83811D0F8DC
:100460005C11C0F854310131C0F85C111749884261
:1004700019D1591E04290ED8DB00BD33516919501A
:100480001D1891696960FFF7A3FE2268536943F064
:100490000203536170BD6FF400752B440B2BF2D82F
:1004A000DB000133EAE76FF400710B440B2BEAD851
:1004B000DB00074D516901335E1959519169716033
:1004C000E1E700BFF4010020FC070020FC00002051
:1004D00004070020044B984202D1F838FFF778BE99
:1004E000024B9842F9D07047F4010020FC0700202D
:1004F000014804F0F3B900BFF4010020FFF7F8BF92
:10050000014804F0EBB900BFFC070020FFF7F8BF7B
:1005100008B5044907F0B4F9BDE80840024907F0FE
:10052000C3B900BF00A00CC600A00C462DE9FF41D6
:100530000E4681610446016901923046154608F075
:1005400087FD2946206109F047F800283ED104F1D3
:10055000100705F100403968039009F03DF800B13B
:1005600003AFD7F80080E769C4F8108039464FF030
:100570007E5008F06BFDA16808F072FE61690546C7
:10058000304608F063FD0146284608F069FE216AFE
:100590000546384608F064FE0146284608F058FD36
:1005A000216820620546304608F05AFE6168074619
:1005B000404608F055FE0146384608F049FD2946F8
:1005C00008F046FD666104B0BDE8F08101AFC0E708
:1005D000F8B510220D460021044609F0B1F80023B9
:1005E000C4E90433C4E90633D5E9006C18461D4656
:1005F0001946664526D056F8042B002AF9D092F801
:100600004570032FF5D8DFE807F002080D14032921
:10061000EFDC44F821200131EBE7002DE9D1226124
:100620000125E6E70128E4DC04EB800701307A616C
:10063000DFE7002BDDD1E26182F8B130A2F846306D
:100640000123D6E7094D0A48AB69A3676B69636765
:1006500001F0EAF8E067064801F0F4F82369C4F80D
:10066000800013B1AA69C3F84821F8BD58150020CD
:100670009811002038B504460846154608F09CFD40
:1006800008F0B4FF08F098FDC4F89C00284608F074
:1006900093FDC4F8B80038BD30B589B0CDE902216A
:1006A00001931D4B1A6A5B6A0592002BD8BF134653
:1006B000002A069317DD8A42B4BF05AC03AC514251
:1006C00025680791A942C8BF07AC24680394029C1F
:1006D0000791A242B4BF05AA02AA1468A142C8BFEA
:1006E00007AA12680292002B0CDD019A9342B4BF54
:1006F00006AA01AA5B42116807938B42C8BF07AAEA
:1007000013680193039B5B424365029B8365019BD6
:10071000C36509B030BD00BF581500200023C38752
:1007200080F84030836470472DE9F0410E4681EA3D
:10073000E17117460446A1EBE6711A461BB9C3875F
:10074000114641481CE0222990F83E5009DC012363
:1007500080F83F3065BB80F8405000231A46394688
:10076000EFE72DBB90F83F30002B6AD03648036985
:1007700001224BB984F8402084F83F301A461946CC
:10078000BDE8F041FFF788BF002EE287B4BF012229
:100790004FF0FF3284F841205B6E84F84050C4E98A
:1007A000113503F047FE94F83E30E064002B44D04E
:1007B000254D2B6943B90023012284F83E3084F88B
:1007C00040201A461946BCE703F034FEE36CC01A19
:1007D00041F657339842EED82B69626C5B6E9B1AD8
:1007E000002BB8BF5B42C3F500522E2AA36406DC7F
:1007F000002384F83E301A4619462846C0E7134BBA
:100800005B6A5B00B3F5A96FC4BF032193FBF1F3EF
:1008100040F25451D8BF4FF4E1738A4208DCA3F58B
:10082000E173534340F25552B3FBF2F303F5E17326
:1008300094F941205343002282E794F83F30002B83
:100840008BD10023BDE700BFF40F00205815002016
:100850002DE9F0477D4F0446FD6903F0EBFD7C4A2E
:10086000937906462BB19368C31A632B8CBF002380
:10087000012397F82020012A00D063B90023C4E99E
:1008800007336371A371A3732374E374A38284F8A1
:100890002C3084F83C307A692AB1637913B1B4F909
:1008A0000A305B425365BF6927B163790BB1B4F974
:1008B0000A307B65002D3CD0002A3CD0D06C08F07B
:1008C0007BFC20F00049002F38D0F86C08F074FC55
:1008D00020F00048B4F90A0008F06EFC5D49824639
:1008E00008F0BEFC4946074608F062FE48B33846A9
:1008F000414608F05DFE071E18BF012756495046C5
:1009000008F0AEFC4946824608F052FE30B141463E
:10091000504608F04DFE003818BF0120637993B9A6
:100920006B6585F8B130C4E90733E374A38284F8BA
:100930002C30BDE8F0874FF00009C4E74FF0000805
:10094000C8E70027DAE7E37CABB9237D9BB994F8CD
:100950003C2082B9237C13B3012387EA0301C4E955
:100960000732E3743D4B61751A606B6EA361C4E995
:10097000093684F82C20E27C237D12BB13BB6B6507
:1009800085F8B13094F83C30002BD2D0A37B002BFB
:10099000CFD1A379002BCCD184F83C30C9E7A27920
:1009A000002AE8D0012222757A4062752B4A136032
:1009B0006A6EA261C4E90733C4E9092684F82C30C1
:1009C000D9E733B1A37923B96B6585F8B1302375C5
:1009D000AFE7637D5BB100236B6585F8B130002F15
:1009E000A7D063756B6EA361C4E90936A1E794F8DB
:1009F0002C302BB30AB394F91130B4F90C205B42BC
:100A00005343226B03EBD3735B10B21A6B65952AC9
:100A10004FF0000385F8B1308BD910496A6E6262DD
:100A20000A6884F82C300132022AA6620A6080DD4E
:100A3000012284F83C20E374C9E794F91230DCE722
:100A400070B9686585F8B10073E700BFF40F002046
:100A5000601600206666663F3333333F98000020FF
:100A6000002A51D094F91130B4F90C70626AA1696E
:100A7000E06913FB07F36B65012385F8B1306B6EFA
:100A80009A1A002AB8BF5242132AA3EB0102C8BF28
:100A9000C4E9093682EAE2730028A3EBE27336DD8B
:100AA0004FF4104242439A4207DC00236B6585F8FD
:100AB000B130E374A36B0344A363E86C08F07CFBE0
:100AC00020F00048384608F077FB1B4908F0C8FBC7
:100AD0000146404608F062FD00283FF42AAFA36AB1
:100AE000F31A4F2B7FF625AF636B144A266301334D
:100AF0006363136801331360012384F82C300023EF
:100B00006B6585F8B13014E794F91230ACE7B3F5B2
:100B1000104FD2DBA06B002AACBF01224FF0FF3296
:100B20004FF4104CB3FBFCF3184453430CFB03137A
:100B3000A063A361C1E700BF9A99993E9800002085
:100B400070B518460C46154608F032FB2946064695
:100B5000204608F07BFA002108F034FD58B1294600
:100B6000304608F075FA2146054608F035FD00B913
:100B70002C46204670BD3146284608F067FA2146CB
:100B8000054608F00BFDF2E72DE9F04F9346554A74
:100B9000D2F800A0054685B00E461846BAF1000FFF
:100BA00000F09C80D2F80490B9F1000F00F096801C
:100BB00093680093002B00F09180D3680193002B81
:100BC00000F08C8008F0F8FA0446304608F0F4FA99
:100BD0000646584608F0F0FA804628F0004126F014
:100BE000004008F035FA24F0004108F0D7FC002856
:100BF000CBF1000014BFBE27962708F0DDFA3A4972
:100C000008F02EFB38498346304608F029FB06469B
:100C10000146584608F01AFA214608F019FAFFF77B
:100C200077FC31460290584608F012FA214608F047
:100C30000FFAFFF76DFC2C498346404608F010FB85
:100C400001460390304608F003FA214608F000FA06
:100C5000FFF75EFC039B80463146184608F0F6F924
:100C6000214608F0F5F9FFF753FC0446DAF8540082
:100C700008F0A2FA029902463B462846FFF760FFB9
:100C800008F0B4FCCAF85400D9F8540008F094FAFB
:100C9000594602463B462846FFF752FF08F0A6FC9D
:100CA000C9F85400009B586D08F086FA4146024688
:100CB0003B462846FFF744FF08F098FC009B586528
:100CC000019B586D08F078FA3B46024621462846BB
:100CD000FFF736FF08F08AFC019B586505B0BDE8B8
:100CE000F08F00BFF40F0020F4FD343F10B50C4628
:100CF00020460A4908F05CFC20B12046084908F06B
:100D0000A7F904460749204608F066FC20B12046B2
:100D1000034908F09BF90446204610BD000034C387
:100D20000000B443000034432DE9F8432E4ED6F8BA
:100D300010800446B8F1000F4FD0006B08F03CFA69
:100D40000746606B08F038FA284B05469969D8F8D1
:100D5000500108F07BF9264908F082FA4FF06451FF
:100D600008F07EFA01463046FFF7C0FF00F1004070
:100D700007F026FE1AA3D3E9002307F079FE1D4BE6
:100D8000002207F09FFF08F00DF9064606F0BAFDB5
:100D90008046304606F042FD01460646384608F0D9
:100DA0005FFA41468146284608F05AFA014648460D
:100DB00008F04CF908F01AFC41462063384608F068
:100DC0004FFA31460746284608F04AFA01463846A7
:100DD00008F03EF908F00AFC6063BDE8F88300BF44
:100DE0004AD8124DFB210940F40F0020581500206D
:100DF0000000B44300806640134B90F83D2093F808
:100E0000203010B50446A2B91A1E18BF0122012BCA
:100E100084F83C2084F83D300DD10023C4E90C3324
:100E2000A363D4E90D23216B2046BDE81040FFF7F2
:100E3000ABBE0022EBE71BB103F0FB03032BF0D1A9
:100E40002046FFF771FFECE7F40F002082B02DE998
:100E5000F74304460D460B93002A40F08D81754FF1
:100E600097F82030062B0BA876D100F0DFFC014666
:100E7000284608F0EBF801466E48FFF737FF4FF0C1
:100E80008C4108F0EDF96C4908F09EFA6B49054673
:100E900008F08EFB002862D04FF08C41284608F005
:100EA000D7F8054697F820802561B8F1000F6AD180
:100EB0003B69002B00F04D814FF08043E3615E4BB6
:100EC00023620BA800F0B4FC5D4900F1004008F07B
:100ED000C7F95C49A061009108F07EFB00284BD166
:100EE00004F1180658493068019108F057FB00B129
:100EF00001AE3368E169A36125F0004008F062FBB0
:100F000000283BD02946514A04F15800FFF70EFB58
:100F10004F4908F0A5F9A16908F09AF8256A6061BF
:100F2000294608F059FB58BB04F1140605F10040AE
:100F30003168019008F050FB00B101AE306860618B
:100F400008F054FB3D69D5F850316865636003B023
:100F5000BDE8F04302B0704700F066FC87E74FF051
:100F60008B41284608F02EFB00289BD04FF08C4187
:100F7000284608F06BF894E76E46B3E70020CAE70E
:100F800004F12006D2E7B8F1060F71D13E69002EB8
:100F900000F0E28094F82C30002B3DD12D4AE26124
:100FA00000272D4A2262A76125F00040002B35D092
:100FB0002A4908F0FDFA10B1002384F82C3094F887
:100FC0002C30009703B32649284608F049F92249F6
:100FD000009008F001FB40B304F120052149286886
:100FE000019108F0DBFA00B101AD2D681E490095B2
:100FF00025F0004008F0D2FA30B10021284608F070
:10100000EBFAA0B9194B00930098606108F0EEFA72
:10101000D6F85031706599E7104AC0E70D4908F0DD
:10102000D1FA0028CBD00123C7E76D46D6E70E4B97
:10103000E9E700BFF40F00200000B443000080C5C2
:101040003333B33E00008243000082C300007A4481
:10105000000020400000C041000034430000204157
:101060009A99993F000034C30000F0420000F0C29A
:10107000B8F1020F70D1A06A7B4920F0004008F05F
:10108000A1FA002869D0794E0120E661002866D1D6
:10109000B8F1000F65D0764B23620023A361B8F14D
:1010A000000F1CD1F86D08F087F8724900F100407C
:1010B00008F0D6F87049A061009108F08DFA002878
:1010C00051D104F118096D49D9F80000019108F0D7
:1010D00065FA08B10DF10409D9F80030A36125F0D3
:1010E0000040314608F06EFA00283ED0B8F1060FF5
:1010F00006D02946624A04F15800FFF717FA054660
:10110000A169284607F0A4FF256A6061294608F016
:1011100063FA60BB04F1140605F1004031680190E8
:1011200008F05AFA00B101AE3B6935686561002BE1
:101130003FF40DAF25F000404FF07E51D3F85061E1
:1011400008F040FAB0B13146284607F081FF6060F0
:10115000FDE64C4E404698E700204B4E95E74B4B42
:101160009AE74B4B98E7E946ADE70025C8E704F15D
:101170002006D1E76660EAE6012A7FF4E8AE0BA814
:1011800000F060FB0146284607F060FF0146414839
:10119000FFF7ACFD4FF08C4108F062F83E4908F0D3
:1011A00013F93E49054608F003FA00284FD04FF0E6
:1011B0008C41284607F04CFF0546394925F0004090
:1011C00008F000FA00283FF4C2AE3649D4F89C007B
:1011D00008F046F83349C4F898000746D4F8A00050
:1011E00008F03EF83049C4F89C000646284608F04E
:1011F00037F83146C4F8A000054607F027FFD4F8B9
:10120000881008F02DF8D4F88C108046284608F095
:1012100027F80146404607F01BFF3146804630461E
:1012200007F016FF0146284607F010FF394607F081
:101230000FFFD4F8901008F013F80146404607F06D
:1012400007FF0146206807F003FF20607FE64FF0AC
:101250008B41284608F0B6F90028AED04FF08C41FB
:10126000284607F0F3FEA7E700000C420000C0404C
:10127000000034420AD7233E00008243000082C3AC
:1012800000007A44000040400000C84100000C43C8
:1012900000007043F40F00200000B443000080C53C
:1012A000000020411F856B3F713D8A3F2DE9F04FC3
:1012B000994E9A4F96F820203369DFF86482012A0C
:1012C000B9B0044633D19749002B00F05C81C3F8D4
:1012D000A82000225A65D3F8503163604B6923601F
:1012E0000023FB619048C7F8248000F09DFAA060BD
:1012F0008D4800F0A7FAE06065684FF08C473946EA
:10130000284608F05FF9002840F0FF804FF0000801
:101310004FF08C474146284608F040F9002800F07D
:1013200011812846394607F093FE0546F2E7ABB136
:10133000062A14BF7D494FF08141062AC3F8E41004
:1013400014BF4FF082410021C3F8EC10911F022915
:1013500060D9111E18BF0121C3F8A810744B1B7867
:10136000934217D00025704884F82C5000F05CFAA6
:10137000A0606D4800F066FA002323616361A361F9
:10138000A366E36623673369E0601BB1D3F850219D
:1013900062605D6596F82030DFF898A1DA1F012AB7
:1013A0003CD8D6F81090B9F1000F31D0B9F96A00E5
:1013B00007F002FFD4F828B036905946054607F0EA
:1013C0004FFF5D4908F000F801466062284608F0CA
:1013D000E5F808BB04F124031968359305F10040D2
:1013E000379008F0F9F8359B00B137AB1B685349CB
:1013F00063622BF0004008F0D1F808B1002363626B
:10140000606A08F0F3F8D9F85031C9F85400636005
:1014100000231CE000219FE736ABDDE7022B5CD107
:10142000A56A464925F0004008F0CCF8002854D0C1
:101430004349284607F014FF01466062A06807F0A0
:1014400005FE01463448FFF751FC0123A0608AF8ED
:10145000003096F82030062B14D84D22DA40D243C3
:1014600012F001050ED1DFF8C090CC2209F1040181
:10147000684608F03DF9D9F80030A1682A462046B0
:10148000FFF7E4FC656C2D4925F0004008F09AF860
:10149000002837D0616DD7F81C90284607F0E0FE91
:1014A000A16C206407F0DCFE494607F0D1FDF8612D
:1014B000256DD7F81C902846494608F06FF800B90A
:1014C0004D46D4F84C902946484608F085F800B1BE
:1014D0004D46FD61C7F824800EE79AF800300025DC
:1014E0006562002B94D0104800F09EF93369A0602B
:1014F00025616561A566E5662567002B88D0D3F870
:10150000503184E700232364D2E72846394607F0A8
:101510009DFD0546F3E600BFF40F0020BC0000204F
:101520000000A04058150020981100209A99993F7A
:1015300000000020940000200000254400000C4220
:101540003480373ADFF84480D4F80090D8F800703F
:1015500065604946384608F021F800B94F46D8F88A
:1015600008803846414608F019F800B1474633690B
:1015700027600BB1C3F8485196F82020044B1A702D
:1015800039B0BDE8F08F8B69A7E600BF5815002081
:101590000000002084B038B5044605A8256880E81E
:1015A0000E00013D709BEDB203EBC505B5F80100DF
:1015B00040BA80B207F000FE1A4907F051FE1A49FE
:1015C00007F002FF194907F041FDA0612B79E87887
:1015D0001B0943EA001007F0EFFD154907F040FE34
:1015E000144907F0F1FE144907F030FD20622B7911
:1015F00068791B0203F47063184307F0DDFD0F499F
:1016000007F02EFE0B4907F0DFFE0D4907F01EFD27
:101610000C49A06207F024FE20632046BDE8384054
:1016200004B07047DA0FC94100FF7F47DA0F494124
:101630000000A04100F07F45000020410000A042D2
:10164000000020423333B33FCA0004488D320823E0
:10165000024401F58071FEF7C7BE00BFFC00002008
:1016600030B5EFB004681E494FF4D67203A808F0F5
:101670003FF81C4A1068516801AB03C3FC232146A4
:101680008DF80B3001AA082303A8FEF7ADFE05F084
:1016900023FC0128144C0CD06368012B02D80120D4
:1016A00005F0F6FA63680120B0FBF3F05843C0F18F
:1016B000010023684FF0E02158434D698C694FF4D5
:1016C0007A73584300238A69A242FCD0234428BF7E
:1016D0005B199B1A984201D86FB030BD1446F2E7EF
:1016E000FC000020289A00080400002000000000F0
:1016F00084B02DE9F843044609A8E669769D80E8A0
:101700000E00304607F05CF927A3D3E9002380469A
:10171000894607F029FC002838D125A3D3E9002306
:101720004046494607F02AFC002831D1676A224921
:10173000E661384607F03CFF60BB2049384607F0B9
:1017400041FF48BB6762676B1D49384607F030FFB1
:1017500020BB1C49384607F035FF08BB67632E7075
:10176000637F6B70A37FAB70E37FEB7094F82430E2
:101770002B7194F825306B7194F82630AB7194F886
:101780002730EB71BDE8F84304B070470E4ECDE74B
:101790000E4ECBE7084FD5E7084FD3E7084FDDE7FC
:1017A000084FDBE7AFF300804AD8124DFB2129C078
:1017B0004AD8124DFB212940000020C100002041E1
:1017C000000090C100009041DA0F49C1DA0F494191
:1017D00030B50A4441F2210591420FD011F8013B86
:1017E00080EA032008234400013B00044CBF84EA44
:1017F0000500204613F0FF03F5D1EDE780B230BDC0
:1018000038B50D460446114628461A4601F0E2FE58
:101810006422002101F00FFF9DF81030C4F8CC5075
:1018200084F86430E56038BD406B7047006C7047E9
:10183000C06C7047806A20B1081A90428CBF0020AB
:1018400001207047806B7047406C7047F8B590F886
:10185000645007460C461E466DB908460A4490423D
:1018600004D010F8013B1D44EDB2F8E7B54214BFB7
:1018700000200120F8BD013D012D15D8A1B1052A98
:1018800012D94D88AB1D93420ED104220020FFF7E0
:101890009FFF2A46A11DFFF79BFFB6B2B885A7F8A8
:1018A0006000FE858642E2E70020E3E7C3682DE999
:1018B000F74F0446002B5DD0186800285AD004F179
:1018C00065080022414604F0C5FD0128A06051D101
:1018D0000023237494F86430002B40F0B980636EC9
:1018E0009B4A23F07F4323F0FF03934242D194F8B5
:1018F0006750012D41D194F86820A318414693F810
:10190000693004322046FFF7A1FF002835D0B4F932
:10191000690007F051FC8F4907F0A2FC4FF06051BD
:1019200007F09EFC2063B4F96B0007F045FC894981
:1019300007F096FC4FF0605107F092FCA063B4F9F9
:101940006D0007F039FC834907F08AFC4FF06051C5
:1019500007F086FC25746063A3690133A36102F07C
:1019600069FD6062A06204F13C03303494E8070032
:1019700083E8070003B0BDE8F08F94F86730032BCD
:10198000F8D194F86820A318414693F869300432DE
:101990002046FFF75BFF0028ECD0B4F8690025680B
:1019A000B4F86BA0B4F86D90B4F86F80B4F87170AF
:1019B000B4F87360C0B207F0FBFB4FF0605107F062
:1019C0004FFC294607F04CFC5FFA8AFA60655046E6
:1019D00007F0EEFB4FF0605107F042FC294607F09C
:1019E0003FFC5FFA89F9A065484607F0E1FB4FF03C
:1019F000605107F035FC294607F032FC5FFA88F8A1
:101A00006568E065404607F0D3FB4FF0605107F092
:101A100027FC294607F024FCFFB2A064384607F0F3
:101A2000C7FB4FF0605107F01BFC294607F018FC7C
:101A3000F6B22065304607F0BBFB4FF0605107F06F
:101A40000FFC294607F00CFC0123E064237483E7B4
:101A5000013B012B8ED8D4F8CC3013B3DE68731E53
:101A6000632B1ED8B6B200273A46B9461FFA87FA4A
:101A70005346991DB14264D8E11891F865005A287F
:101A80000DD191F86610A52909D108EB0A05E9786E
:101A9000AA7802EB012292B23B2A04D80122013734
:101AA000E4E76426DFE70632642AF7D813449E424F
:101AB000F4D369792B79A4F8609003EB01231FFA22
:101AC00082FB9BB25A4629462046FFF7BFFEA4F888
:101AD0006090034610B9E2690132E261AA79912A65
:101AE000DCD1D5F812206265D5F81620A265D5F8AC
:101AF0001A20E265D5F81E202265D5F82220A264BE
:101B0000D5F82620E264D5F83620A263D5F83A202D
:101B10002263D5F83E206263002B14BF012202220B
:101B20002274A269A4F812A00132A4F814B0A26130
:101B3000019302F07FFC019B6062002B3FF41AAF1F
:101B400010E7002A7FF416AF236A0133236211E7FE
:101B50000055550000003443002282604FF08C4253
:101B600002604FF08B424261084A8261084A42603B
:101B70004FF08342C2604FF47A7140F6B832C0E948
:101B8000071242620222C0E90A22704700209945EA
:101B90000000904110B5084AC26000210022C0E94F
:101BA0000422C0E909220160416081608261C16153
:101BB0000162828510BD00BF00007A44826B8A42B8
:101BC00008BFC36B10B5046C0CBF013300239C42EB
:101BD000C36308DCC46322B9012380F83430816315
:101BE00010BD0223F9E70323F7E710B5D0F84C1135
:101BF0000446D0F8500107F029FA07F0F7FC03B2C9
:101C0000B3F5805F06DDA3F500531BB2606E184488
:101C1000606610BD13F5805FF8DA03F50053F4E752
:101C200038B50E4D2B78042B98BF01330446406E17
:101C300098BF2B7007F0C0FA094907F011FB09495A
:101C400007F00EFBD4F8581107F000FA2B78C4F80F
:101C50005401022B98BFC4F8580138BDB8000020C9
:101C6000DB0F493A8EE3A83F40F6B833A0F868305E
:101C700006291BD8DFE801F0040D141B1B222700E6
:101C80004FF48043A0F86C3040F6D863A0F86A3077
:101C9000704743F2C823A0F86C3042F22833F5E7CE
:101CA0000B4B836643F2C823A0F86C30704741F2B7
:101CB0008833A0F86C304FF49673E7E7054B8366E2
:101CC00047F23053F0E7044B836642F21073EBE7C0
:101CD000E803282350000401E803B80B2DE9F84F6E
:101CE0000DF1280A99465AF8043B03600446002582
:101CF0004FF07E5300268B4635498362C1620362F2
:101D000003634560856145628560C0E90E6680F8C1
:101D1000346004F1B4081420206404F1E407404660
:101D2000C4F89430C4F89810C4F88C30C4F89C30CF
:101D3000C4F8A8202567C4F88450C4F8905065679B
:101D4000C4E91266C4E91466C4E9196684F844B0AB
:101D5000A4F86C60A4F8B060FFF71CFF3846FFF7EA
:101D600019FF04F58A70FFF715FF1A4BC4F84431C8
:101D7000194BC4F84851C4F85451C4F85851C4F828
:101D80005C51C4F86051C4F86451C4E95366C4F8A6
:101D9000703159462046FFF767FF424617AD53465C
:101DA00003CBAB42106051609A4602F10802F6D1B3
:101DB0003A4623AE2B4603CBB342106051601D461A
:101DC00002F10802F6D184F845902046BDE8F88F6C
:101DD0000000204262BE3C39F0FCA23B2DE9F047F6
:101DE0000DF12008044600259A4658F8043B03608C
:101DF0004560856104F1B4074FF07E5000262E4BFC
:101E0000A0628946206214212063C4F89400C4F8BB
:101E10008C00C4F89C003846E3622164C4F8983012
:101E2000C4F8A820C4E90E66C4E91266C4E91466C1
:101E3000C4E919666562A56084F8346084F844904A
:101E4000A4F86C602567C4F88450C4F890506567A6
:101E5000A4F8B060FFF79EFE04F1E400FFF79AFEDD
:101E600004F58A70FFF796FE144BC4F84431144B06
:101E7000C4F87031C4E95366C4F84851C4F85451E9
:101E8000C4F85851C4F85C51C4F86051C4F86451A6
:101E900049462046FFF7E8FE3A4615AB454603CDD6
:101EA0009D4210605160A84602F10802F6D184F804
:101EB00045A02046BDE8F0870000204262BE3C39C4
:101EC000F0FCA23B10F5805F03DC00F5005000B28F
:101ED0007047B0F5805FFBDDA0F50050F7E784B0F8
:101EE0008842CDE90010B4BF01AB6B4649421A6885
:101EF00003919142C8BF03AB186804B0704700005B
:101F00002DE9F84307686FF400731F4401EBC7081D
:101F10000D4698F8053098F8041003EB012319B228
:101F2000816504461646FFF749FE15F8373098F8E4
:101F3000010000EB032000B207F03EF9C4F85001A5
:101F400098F80620C4F8A0200023462AC8BF63657D
:101F5000E36594F84430032B81464CD1D4F84C11FE
:101F600007F074F807F042FB00B2FFF7ABFF07F091
:101F700023F9454907F028FA4FF0645107F070F94A
:101F8000424907F06DF907F031FB0546D4F8A83057
:101F9000E564022B37D1606D054313D1D4F84C8131
:101FA0000123E365404607F021FB206607F004F9B2
:101FB000414607F04BF8364920F0004007F0EEFAB2
:101FC00000B1A5642046FFF710FE2046FFF728FE6B
:101FD000D4F85031A06CB4F96C10C4F84C31FFF750
:101FE0007EFFA064001206F8170006EB4706A36CFC
:101FF0007370BDE8F88398F8020098F8035005EB79
:1020000000252DB2C2E7012B34D14946D4F848014E
:1020100007F01CF807F0EAFA00B2FFF753FF80461A
:10202000B4F96A0007F0C8F80546404607F0C4F85E
:102030002A46014604F1E400FEF778FAB4F96A5042
:1020400007F0D4FA2946FFF74AFF05466065B4F960
:102050006C0007F0B1F88046E06C281A07F0ACF885
:102060004246014604F1B400FEF760FA07F0BEFAFA
:10207000A064A7E7002BA5D1B4F96C0007F09CF889
:102080008046606D401BE9E76F12833A00007042A2
:102090000000484238B50C460546114620461A460F
:1020A00001F098FA6422002101F0C5FA01F0A5FAC6
:1020B000C5F8C840C5F8D44038BD0000D0F8C80005
:1020C00018B10249062201F069BE7047309A000833
:1020D000F8B5036B0446002B72D0186800286FD047
:1020E000002204F1400104F0B5F90128606303D136
:1020F000A07102F09FF9A06094F8413094F840205C
:1021000094F8427094F843C094F8446094F84510F1
:102110001A433A434CEA020232430A4350D0780150
:1021200040EAD300C0F30A00A0F58063B4F8405041
:10213000E381B302C5F30A0543EA8C03A5F5806287
:1021400043EA9713A5F57E75102DC3F30A03A0F596
:102150007E70A28198BF0025A3F58062228298BF7D
:10216000A581CA011028A3F57E7342EA560298BFE2
:102170000020C2F30A0298BFE081102B98BF002311
:10218000A2F58066A2F57E7298BF2382102A98BFBE
:102190000023668298BF6382A38AE3838B09237539
:1021A000C1F301136375B4F846302384B4F84830A2
:1021B0006384B4F84A30A384B4F84E305BBAE38445
:1021C000F8BD0000F8B583793A4C0546002B37D0AE
:1021D00002F030F9AB68C01A632831D8AB8AB3F586
:1021E000817F29D1B5F910600123304684F8693127
:1021F00006F0E2FF20F000472F49384607F0E2F9E9
:102200000546002851D12C49384607F0DBF9003843
:1022100018BF012084F8745184F8720135B1002E82
:10222000B4BF01234FF0FF3384F87531002384F8E5
:10223000730184F86A310EE040F2023293420BD00F
:1022400000234FF4807284F8693184F86A31A4F86D
:10225000722184F87431F8BDB5F910700126384642
:1022600084F8696106F0A8FF4FF4807320F0004500
:102270001149A4F872312846002384F8743107F01C
:10228000A1F9002803460C4918BF3346284684F8B4
:102290006A3107F097F90028DDD0002FB4BF012381
:1022A0004FF0FF3384F87631D5E794F8735185F019
:1022B0000105A8E7F40F002000000C422DE9F74FBC
:1022C000614C0546236AB0F912000093584306F0AA
:1022D00073FF5E4907F078F807F088F9B5F90C60EC
:1022E00095F806A0636AB5F91090B5F90E80AC8A2E
:1022F000019307467642BAF1000F09D002F09AF82E
:10230000AB68C31A632B8CBF4FF0000A4FF0010A71
:1023100040F20312944202D04D48FEF7FFF9B5F89F
:1023200014B04C4C40F203318B450ED1012384F89C
:10233000203000231A4619462046FEF7ADF92846FC
:1023400003B0BDE8F04FFFF73DBF40F201318B45D0
:102350002BD1082384F82030009B09FB03F006F002
:102360002BFF3A4907F030F807F040F90023024606
:1023700039462046FEF790F9404606F01DFF4FF023
:102380007F5106F06DFF07F031F90746304606F041
:1023900013FF4FF07F5106F063FF07F027F93A462D
:1023A00001462046FEF766F9C9E7019BC9F1000026
:1023B000584306F001FF254907F006F807F016F923
:1023C00040F201118B4506D1002684F820600346B7
:1023D0000022394626E040F203118B450DD103223D
:1023E000B5F9101084F8202053463A4604F1240031
:1023F000FEF79AF900221146D3E740F202239B45EB
:1024000007D1042384F82030002312481A461946C5
:1024100093E7BBF5817F0BD1022384F820300023A2
:102420001A4619462046FEF737F942463146B8E7C4
:1024300040F202339B45EFD040F201239B45E0D1AF
:10244000072384F82030C2E75815002000002544F7
:1024500018100020F40F0020FFF730BF38B50C46ED
:102460000546114620461A4601F0B4F864220021C0
:1024700001F0E1F8EC632C6338BD08B501F0D2FF40
:1024800002F052FB04F028FD012813D04FF0500356
:1024900083F31188BFF36F8FBFF34F8F04F0AAFA55
:1024A00028B14FF0E0234FF08052C3F8042D0023F1
:1024B00083F3118808BD000030B595B010220021CB
:1024C0000AA807F03DF91422002103A807F038F903
:1024D0000024264B01941A6C42F080521A641B6C43
:1024E00003F080530193019B214B02941A6842F43C
:1024F00080421A601B6803F4804302930122029B0E
:102500004FF48033CDE9082302254FF48003CDE951
:102510000E5319214FF4A873CDE9101308A807230F
:102520001393129502F090FC0F23CDE903354FF47D
:10253000A0504FF48053CDE90603052103A805946C
:1025400002F058FE02F00AFF4FF47A73B0FBF3F08A
:1025500002F0CAFA042002F0DBFA224621464FF0CC
:10256000FF3002F081FA15B030BD00BF00380240E4
:102570000070004010B542608360029A064BC36051
:10258000C26100230022C0E90433C0E909330160BD
:1025900083610262838510BD00007A4410B5302249
:1025A00004460021953007F0CBF80023C4E94E33F0
:1025B000C4E95033C4E95233C4E95433C4E956334F
:1025C000C4E95833A4F86831204610BD10B5002284
:1025D00004466421012003F005FE00232060C4E9C5
:1025E00002332371204610BD73B51022044600212A
:1025F00007F0A6F8434B23634FF4807300250026B1
:102600002366A4F86430404B2661C4E90566C4E93A
:102610000D66C4E91266C4E91566C4E91A66E66186
:102620006562A562E562E66325646564A4F85060AE
:10263000E66526676567A567E567C4F88050C4F856
:102640008450C4F88850C4F88C50C4F89050C4F832
:102650009450C4F8BC302D4BC4F8C0302C4BC4F897
:10266000C4302C4BC4F8C8302A462B462A49C4F83B
:102670009850C4F89C5084F8A060C4F8A450C4F8E2
:10268000A850C4F8AC50C4F8B050C4F8B450C4F862
:10269000B850009504F1CC00FFF76CFF2B462A469A
:1026A0001E49009504F1FC00FFF764FF2B462A4603
:1026B0000095294604F59670FFF75CFF184B194A00
:1026C000C4F85C314FF40763C4E95B23164B84F80C
:1026D00060612046C4E95F66C4E96166C4E9656675
:1026E000C4F86451C4F86861C4F87431A4F878611E
:1026F000C4F88C6184F89061C4F89C6184F8A0618E
:1027000002B070BD00007A44000080BF000080BEAF
:10271000CDCCCC3EACC5A7360AD7A33DCDCC4C3DE5
:10272000000020400000C409000101002DE9F04F25
:10273000B3B000254FF081474FF07F5A53462A46E9
:102740003946009526A826AEFFF714FF0FCE01AC40
:102750000FC40FCE0FC496E80F00DFF8E48284E8C0
:102760000F0040F2012B00221146CDF800B00223E9
:102770004046FFF733FB26AE53462A4639460095BE
:1027800026A8FFF7F7FE0FCE01AC0FC40FCE0FC483
:1027900096E80F004FF4017984E80F0000221146FB
:1027A000CDF80090022308F5BA70FFF717FB26AEAC
:1027B00053462A463946009526A8FFF7DBFE0FCE82
:1027C00001AC0FC40FCE0FC496E80F0084E80F00D1
:1027D00040F20523009300220323062108F53A70F6
:1027E000FFF7FCFA26AE53462A463946009526A83E
:1027F000FFF7C0FE0FCE01AC0FC40FCE0FC496E89A
:102800000F00DFF8408284E80F0000231A461946C3
:10281000CDF800B04046FFF7E1FA26AE53462A460F
:102820003946009526A8FFF7A5FE0FCE01AC0FC4D0
:102830000FCE0FC496E80F0084E80F0040F2022389
:10284000009300231A46194608F5BA70FFF7C6FA36
:1028500026AE53462A463946009526A8FFF78AFE3B
:102860000FCE01AC0FC40FCE0FC496E80F0084E862
:102870000F0040F20323009300231A46194608F57F
:102880003A70FFF7ABFA26AE53462A463946009512
:1028900026A8FFF76FFE0FCE01AC0FC40FCE0FC4FA
:1028A00096E80F0084E80F0000231A461946CDF879
:1028B000009008F25C40FFF791FA2A46624B6349A8
:1028C000009526A8FFF756FE1AAC2A4660490095E7
:1028D0004FF082431AA8FFF74DFE0FCC0DAE0FC686
:1028E0000FCC0FC694E80F0086E80F0026AC0FCC83
:1028F00001AE0FC60FCC0FC694E80F0086E80F009C
:102900004FF40273009301231A46052108F5BA60BB
:10291000FFF7E4F94F4B50481D61032140F202528A
:10292000C3E900124D4A9A6300244D4A5D61C3E930
:1029300002449D61DD61DA63FFF730FE49484A4E8B
:10294000FFF72CFE4948FFF741FE4948FFF73EFEDE
:102950004848FFF73BFE4848FFF738FE4748FFF777
:1029600035FE4748FFF732FE464B4748474A1F604F
:10297000C3E90244C3E90644C3E90844C3E90A447D
:102980005A601C745C829C825D659D65DD650123D7
:10299000642783804FF07E5383628471846080F863
:1029A0002C4004633A462146403006F0C9FE3A46C0
:1029B0002146304606F0C4FE3A462146F01906F09C
:1029C000BFFE334BC6F8C840C6E934441C70314ED4
:1029D0003148FFF709FE4FF48073C6E9033303F172
:1029E0000073A3F19713C6F808313A462146C6E9A9
:1029F00007443460B560A6F8824006F5867006F09C
:102A00009FFE2146962206F5B87006F099FE3A46DA
:102A1000214606F2062006F093FE06F26A233A46A5
:102A20002146184606F08CFEC6E9B644C6E9B40055
:102A3000C6E9BA4486F8E04233B0BDE8F08F00BF83
:102A4000A8020020B00800200000A040000048427A
:102A50009A99993FBC000020FC0000200000204112
:102A60009A99193F04070020881500205417002068
:102A700008180020BC18002070190020241A00201B
:102A8000D81A002098110020601600200000FA4497
:102A90000417002068120020F40F00202DE9F84FE1
:102AA000D0E9009893466FF06043A8EB0902B3EBBE
:102AB000A20F07468A464FEAA20402D11D4804F03D
:102AC000A2FE012C224638BF0122A418A1EB090561
:102AD0002BD264B39C4228BF1C46A00004F07FFEAA
:102AE0000646DBF800307351002D04DD2A464946C6
:102AF000304606F00BFEA8EB0A080435B8F1000FCB
:102B0000354404DD42465146284606F0F1FD454471
:102B1000B9F1000F02D0484604F05FFE06EB8404D2
:102B2000C7E90065BC60BDE8F88F1C46D5E72646BE
:102B3000D7E700BF379A000810B50A46D0E901145C
:102B4000A14204D0126841F8042B416010BDFFF788
:102B5000A5FFFBE700B589B0FFF7AEFC042001F04C
:102B6000D7FF704C704B4FF0E021012565601A686B
:102B70006E4BB2FBF3F2226008694FF47A7672432F
:102B800040F0020008614A610A692A430A6101F0C3
:102B90002FFC67496748FDF771FB67496748FDF7F8
:102BA0006DFB3346664A6748002100F065FB00F084
:102BB000E3FB654A6549664800954FF46123FEF7DB
:102BC0001FFE644B644A65496548664DFFF746FC45
:102BD000654A664966484FF41653FFF75BFA654A43
:102BE000654966484FF4E12301F0DEF86448FEF7DA
:102BF000B3FF002605A902A80595CDE90266049653
:102C0000FFF79AFF05F5BA7305A902A80593FFF728
:102C100093FF05F53A7305A902A80593FFF78CFF0A
:102C200005F25C4305A902A805F5BA650593FFF70F
:102C300083FF059505A9534D02A8FFF77DFF05A960
:102C400002A80595FFF778FF05F5BA7305A902A854
:102C5000059305F53A75FFF76FFF05A902A80595DD
:102C6000FFF76AFFDDE90235ED1ACDE90566079643
:102C700051D0454B9D4201D904F0C2FD284604F0D5
:102C8000AEFD0346DDE902121D4491420795CDE9F0
:102C90000533A2EB010504D018462A4606F036FD9E
:102CA00003463A482B4405A90693FDF791FC059885
:102CB00008B104F092FD04F00FF901282DD06368EB
:102CC000B3F57A7F05D84FF47A70B0FBF3F003F0D8
:102CD000DFFF62684FF47A73B3FBF2F35343C3F53B
:102CE0007A7322684FF0E0205343456984694FF4BA
:102CF0007A72534300228169A142FCD0224428BF4A
:102D00005219521A93420BD82148FEF7A9FC2148C8
:102D100000F09CFAFEE72B46B4E74FF47A73E0E745
:102D20000C46E8E7040000200C00002040420F00A1
:102D300000640040FC000020006800400407002000
:102D4000000400400C170020004400400818002038
:102D500098110020A086010000480040BC18002007
:102D600060160020B008002000500040241A002007
:102D70008815002000140140D81A00201C200020D3
:102D800058150020A8020020FCFFFF7FF40F002050
:102D9000BC00002004170020FFF7C8BC0C4B1A68C9
:102DA000002142F001021A6099601A6822F08472D0
:102DB00022F480321A60074A5A601A6822F480228C
:102DC0001A60D960044B4FF000629A60704700BFF0
:102DD000003802401030002400ED00E013B504F08C
:102DE000F1FA224B0193012300932149214800234A
:102DF000802203F083FC204B0193032300931F499F
:102E00001F480023802203F079FC02241D4B01930C
:102E10001D49009400234FF480721C4803F06EFC9F
:102E20001B4B1C491C48CDE900434FF48072002322
:102E300003F064FC194B1A491A48CDE9004380227B
:102E4000002303F05BFC184B18491948CDE90043F7
:102E50004FF48072002303F051FC164B186803F006
:102E600021FD02B0BDE8104004F0CCBAA80000205B
:102E7000519A000825300008A4000020599A000843
:102E800001300008AC000020649A0008B92E000848
:102E90009C000020749A0008212F0008A000002048
:102EA000849A0008C1300008B4000020909A0008FD
:102EB0003D300008B00000202DE9F743124D134FBC
:102EC000134E03F091FD0024019040F25C48281954
:102ED00010493A4604F5BA74FFF712F84445F6D1A2
:102EE000DFF83490002440F2447830190B494A4608
:102EF00004F5BA74FFF704F84445F6D1022101A89D
:102F000003F07EFEDDE700BFA80200208101002063
:102F1000B0080020FD0000208907002005070020E0
:102F200080B5314C314EEEB004F10C0703F05CFD7E
:102F30002F4D6D904FF4D07239466846689506F073
:102F4000D7FB94E80E002948FEF724FB336804EB16
:102F5000C3038D336A93F36B69934FF4D072B36BF1
:102F600068933946684606F0C3FB94E80E001F4894
:102F7000FEF7BEFB03211D48FEF766FB1D4A536C9E
:102F8000591C51640322B3FBF2F202EB42029B1A7A
:102F9000012B06D0022B16D001216DA803F030FEC4
:102FA000C4E70823A5F1380240F2FF11A5F1C500DE
:102FB000FDF71AFA104A082340F2FF11A2F18D0022
:102FC000FDF712FAE8E70823A5F140024FF400717B
:102FD000A5F1C500FDF708FA084A08234FF400716F
:102FE000A2F18500ECE700BFFC000020BC0000203F
:102FF000C10100200C170020910700208907002044
:1030000008B5064D064C2846FFF762F82046FEF745
:103010004DFC052003F03CFEF5E700BF60160020E4
:103020009811002008B5044C2046FFF747F86420AB
:1030300003F02EFEF8E700BF8815002070B586B0BB
:1030400003F0D2FC194E0590002501F0F3F964223B
:1030500001461748FEF7EEFB20B31548FEF7F4FBD8
:10306000314606F0FDF804461148FEF7DFFB314615
:1030700006F0F6F80F4B93F82030062B08BF0E4BE6
:103080004FF0000208BF1978029018BF00210B48CA
:10309000019400922B4600F0F2FE0A2105A803F0ED
:1030A000AFFDD2E728462C46E4E700BF35FA8E3C58
:1030B00098110020F40F0020C82100201C200020BF
:1030C0002DE98048584E594F89B04FF00008DFF87D
:1030D00060B1304601F00DF85846FFF7BDF901F038
:1030E000A9F9BBF8149040F2032AA9EB0A03D3F123
:1030F000000A044630464AEB030A00F07BFE102229
:10310000054600210DEB020006F01AFB9BF8063085
:10311000039433B1DBF80830E31A632B8CBF002330
:10312000012344498DF810308DF811A0042331F9A2
:10313000022B323292B2642A4BD8013B13F0FF03C8
:10314000F5D101236422214638468DF81230FEF76E
:1031500071FB21468DF81300304600F041FE8DF8DA
:103160001400AB788DF815303846FEF75FFB0690FB
:103170006B683149079303AA01A801F01DF89DF877
:10318000045045B32D4C062384F8203000231A4602
:1031900019462046FDF780FA002211462046FDF729
:1031A00069FA0023A4F8683184F86A3184F872312E
:1031B00084F87431029BE3672148FEF777F82148D1
:1031C000FDF71AFE2048FDF743FB052003F060FDE4
:1031D0007DE70023B6E740F203239945ECD1174C75
:1031E000042384F820302A462B4629462046FDF742
:1031F00053FAA4F86851384684F86A5184F8725139
:1032000084F87451FEF710FB2369E067C4F89C80D2
:10321000C4F8B880002BCFD0D3F85021A267C3F8F0
:1032200048215D65C8E700BF1C20002098110020E0
:10323000601600206C160020C8210020F40F00202A
:1032400068100020181000205811002007B5074B07
:10325000019301230093064906480023802203F0CE
:103260004DFA03B05DF804EB03F076BBB00000202C
:10327000989A0008DD2D0008F8B504462D48B0FBEB
:10328000F3F00E46154605F093FF2B49074606F06E
:1032900099F928B32849384606F096F84FF07E5140
:1032A00005F0D4FE06F0C8F941F28733E0606361AF
:1032B0000023012EA5602361A3611FD0022E22D01E
:1032C0001EB904F1080002F04BFA63692360B5F1FE
:1032D000804F1DD1194A04F1080353602046F8BD00
:1032E0005323E3601649384606F06EF84FF07E51DE
:1032F00005F0ACFE06F0A0F96061D9E704F1080022
:1033000002F048FAE1E704F1080002F05DFADCE7B8
:103310000C4B9D4208D003F580639D42DED1074AE5
:1033200004F10803D360D9E7044A04F10803936069
:10333000D4E700BF00BD010500409C458C1B002068
:103340000000A84200040040024B586808B102F097
:1033500003B970478C1B0020024B986808B102F03B
:10336000FBB870478C1B0020024BD86808B102F0F4
:10337000F3B870478C1B002010B500F1080486B02C
:103380004FF4805302A92046029302F028F800234C
:1033900069462046CDE9003302F026FB204602F0C4
:1033A00013F806B010BD000073B504461148266836
:1033B000056C06F1404301229B0A02FA03F10D431A
:1033C0000564006C1C33014058B20B4B01919E42C6
:1033D000019908BF0022002101F046FB206800F19E
:1033E0004040800A1C3040B202B0BDE8704001F09D
:1033F0006DBB00BF0038024000080040024A536C19
:1034000001335364704700BF0C17002037B50168C3
:10341000094C0023019301F14043256C01229B0AD2
:1034200002FA03F32B432364236C890A8A401A406F
:103430000192019B03B030BD0038024013B5044631
:103440000D492368086C9B0A01229A4010430864C6
:10345000096C0A400192019A1C33002258B21146AD
:1034600001F002FB2068800A1C3040B202B0BDE8C7
:10347000104001F02BBB00BF0038024070B502685D
:103480000E4B9A4286B0044615D1067E012E12D10B
:1034900000256946CDE9005502F0A6FA02A9227E70
:1034A0002046CDE90256CDE9045502F0E1F9217E2E
:1034B000204602F073FA06B070BD00BF000800405D
:1034C0000368344A934203D1334B3D229A607047DC
:1034D000324A934203D1304B4FF47462F6E7304ADC
:1034E000934203D12C4B4FF47412EFE72D4A9342D1
:1034F00003D1294B4FF07462E8E72B4A934203D182
:10350000254B3D22DA607047284A934203D1224B73
:103510004FF47462F6E7264A934203D11E4B4FF4F0
:103520007412EFE7234A934203D11B4B4FF07462AE
:10353000E8E7214A9342A2F1100202D13D239360B1
:1035400070471E498B4202D14FF47463F7E71C4960
:103550008B4202D14FF47413F1E71A4A9342A2F15D
:10356000580202D14FF07463E9E717498B4202D148
:103570003D23D360704715498B4202D14FF47463E9
:10358000F7E713498B420CBF4FF474134FF0746389
:10359000EFE700BF10600240006002402860024078
:1035A0004060024058600240706002408860024003
:1035B000A0600240B86002401064024028640240EB
:1035C00040640240586402407064024088640240D3
:1035D000A064024010B50023C0E91D120C22C0E90E
:1035E0001F33C0E922230446C0F88430C0F890306D
:1035F000743002F081FB204610BD10B50446D0F8AF
:10360000A40003681A6822F001021A60626F043293
:103610009A600022DA60FFF753FFD4F8A4301A68EA
:10362000136843F010031360626F536943F0800323
:103630005361204610BD37B50446D0F8A800036892
:103640001D6825F001051D60656F04359D605A6099
:1036500009B904F11001D960FFF732FFD4F8A8309E
:103660001A68136843F001031360636F5A6942F0EC
:1036700040025A61002201921A6801925A6801922E
:10368000019ADA68204642F01002DA6003B030BDD9
:103690002DE9F0470268C14B9A429CB004466ED1B6
:1036A0000025BF4E0095736CBE4843F01003736451
:1036B000736C03F010030093009B0195336B43F090
:1036C00001033363336B03F001030193019B4FF458
:1036D000C0680223CDE912834FF00109032312A928
:1036E000CDE914930723169301F0C8FA0295336BC2
:1036F00043F480033363336BAB4E03F480030293D4
:10370000029BAA4B4FF000684FF480673046C6E931
:103710000038C6E90255C6E90475C6E90655C6E98A
:10372000085501F01BFA6663A14BB463A14EC6E9CC
:10373000003830464023C6E90235C6E90475C6E9BB
:103740000655C6E9085501F009FA2A4606212663FE
:103750002520B46301F088F9252001F0B7F92A4645
:1037600006213A2001F080F93A2001F0AFF9462015
:103770002A46062101F078F9462001F0A7F92268CF
:103780008D4B9A426ED10025854E0395336C85484A
:1037900043F400333364336C03F400330393039B2B
:1037A0000495336B43F001033363336B03F0010380
:1037B00004934FF00C0C049B0223CDE912C34FF08D
:1037C000010E0323CDE914E312A90723169301F098
:1037D00055FA0595336B43F400133363336B774E1F
:1037E00003F400130593059B754B4FF000684FF4ED
:1037F00080673046C6E90038C6E90255C6E9047557
:10380000C6E90655C6E9085501F0A8F966636D4B8F
:10381000B4636D4EC6E9003830464023C6E9023530
:10382000C6E90475C6E90655C6E9085501F096F9DA
:103830002A46062126632620B46301F015F92620C6
:1038400001F044F92A460621102001F00DF910205C
:1038500001F03CF911202A46062101F005F911205A
:1038600001F034F92268594B9A426DD100254C4E33
:103870000695336C43F480233364336C03F4802364
:103880000693069B0795336B43F004033363336B56
:1038900003F004030793079B4FF440600223CDE934
:1038A00012030127032312A9CDE914734848072303
:1038B000169301F0E3F90895336B43F40013336377
:1038C000336B444E03F400130893089B424B4FF0B4
:1038D00000684FF480673046C6E90038C6E90255F3
:1038E000C6E90475C6E90655C6E9085501F036F97A
:1038F00066633A4BB4633A4EC6E90038304640231B
:10390000C6E90235C6E90475C6E90655C6E9085593
:1039100001F024F92A46062126632720B46301F02A
:10392000A3F8272001F0D2F82A4606210C2001F046
:103930009BF80C2001F0CAF80E202A46062101F05F
:1039400093F80E2001F0C2F82268264B9A4240F00C
:1039500095800025124E0995336C124843F40023DC
:103960003364336C03F400230993099B0A95336B8A
:1039700043F001033363336B03F001030A930A9BA3
:1039800002220323CDE912320122CDE9142312A928
:103990000823169301F072F90B9525E00010014001
:1039A00000380240000002409C1B0020406402409E
:1039B000B8640240DC1D002000440040FC1B0020D5
:1039C00088600240A06002403C1E00200048004089
:1039D000000802405C1C0020286002405860024041
:1039E0009C1E0020004C0040336B43F400133363F3
:1039F000336BA14E03F400130B930B9B9F4B4FF0C3
:103A000000694FF480684FF440373046C6E900390A
:103A1000C6E90255C6E90485C6E90655C6E9087532
:103A200001F09CF86663964BB463964EC6E9003984
:103A300030464023C6E90235C6E90485C6E9065585
:103A4000C6E9087501F08AF82A4606212663342063
:103A5000B46301F009F8342001F038F82A46062151
:103A60000D2001F001F80D2001F030F80F202A465A
:103A7000062100F0F9FF0F2001F028F82268824BA0
:103A80009A4240F085800025804E0C95336C80482A
:103A900043F480133364336C03F480130C930C9B56
:103AA0000D95336B43F004033363336B03F004036E
:103AB0000D930D9B0E95336B43F008033363336B0B
:103AC00003F008030E934FF0030808270E9B169788
:103AD0004FF480534FF0020A4FF0010912A9CDE9CB
:103AE000123ACDE9149801F0C9F817A904236948DE
:103AF0001B97CDE9173ACDE9199801F0BFF80F955A
:103B0000336B43F400133363336B634E03F40013DE
:103B10000F930F9B614B4FF000684FF48067304666
:103B2000C6E90038C6E90255C6E90475C6E9065576
:103B3000C6E9085501F012F86663594BB463594E53
:103B4000C6E9003830464023C6E90235C6E90475A7
:103B5000C6E90655C6E9085501F000F82A460621CF
:103B600026633520B46300F07FFF352000F0AEFF00
:103B70002A4606210B2000F077FF0B2000F0A6FF5D
:103B80002F202A46062100F06FFF2F2000F09EFF15
:103B90002268454B9A426CD100253C4E1095736CBF
:103BA0003B4843F020037364736C03F020031093CD
:103BB000109B1195336B43F004033363336B03F0B5
:103BC00004031193C022119B0223CDE9122301218A
:103BD0000323CDE9141312A90823169301F04EF81C
:103BE0001795336B43F480033363336B2F4E03F429
:103BF00080031793179B2E4B4FF020684FF480677C
:103C00003046C6E90038C6E90255C6E90475C6E97A
:103C10000655C6E9085500F0A1FF6663254BB4635D
:103C2000254EC6E9003830464023C6E90235C6E9CC
:103C30000475C6E90655C6E9085500F08FFF2A4607
:103C4000062126634720B46300F00EFF472000F0F2
:103C50003DFF2A460621392000F006FF392000F0FA
:103C600035FF45202A46062100F0FEFE452000F0E3
:103C70002DFF1CB0BDE8F087BC1C00204060024056
:103C800070600240FC1E00200050004000380240DE
:103C900000080240000C02401C1D00201060024081
:103CA000B86002405C1F0020001401407C1D002011
:103CB00028640240A0640240BC1F0020436F1A68C1
:103CC00013B5D106044628D5DA68D20625D50022D8
:103CD0000192196801915B680193019BD0F8A830AB
:103CE0001B685968C1F16401C160196821F00101C4
:103CF0001960022300F11001006802F04AFBA06085
:103D0000D4F8A800FFF7DCFBD4F8A8301B686422C5
:103D10005A601A6842F001021A6004F1740002B09D
:103D2000BDE8104002F0AAB810B50446D0F8A400CF
:103D3000FFF7C6FBD4F8A4301A68136823F0010318
:103D4000136010BD0148FFF7B9BF00BF5417002032
:103D50000148FFF7B3BF00BF081800200148FFF774
:103D6000ADBF00BFBC1800200148FFF7A7BF00BFD0
:103D7000701900200148FFF7A1BF00BF241A0020DE
:103D80000148FFF79BBF00BFD81A00207047000012
:103D90000148FFF7C9BF00BF701900204FF6FF733D
:103DA00092B2743001F0D6BFF8B500240D46016020
:103DB0001646A0F87C41847444610E2221460430EA
:103DC0001F4605F0BDFC55B13A4631462846FFF77F
:103DD00001FC21466422BDE8F840FFF72CBCF8BD89
:103DE0000346807C28B15869091AC8298CBF002075
:103DF000012070470430704710B5034668B1084C85
:103E00000144104699420AD013F8012B4240D2B225
:103E100034F8122082EA1020F4E74FF6FF7010BD4C
:103E2000A49A000870B50D460446A0B1022912D923
:103E30008E1E4FF6FF723146FFF7DEFFA25DC3B262
:103E40009A4208D12C44C0F3072014F8014C231ADD
:103E50005842584170BD0020FCE770B50D4604463D
:103E600060B102290AD98E1E4FF6FF723146FFF764
:103E7000C3FFA0552C44000A04F8010C70BD70B5B6
:103E80000446059D26680698002E3CD003F0FF46A8
:103E9000042928BF0021B6F1FF4F05F0FF4608BFF7
:103EA0000023B6F1FF4F00F0FF4608BF0025C4F81D
:103EB0008231B6F1FF4FBDF81030A4F886314FF0D3
:103EC000530608BF0020002384F87E61C4F888519F
:103ED000502604F5BF75A4F8903184F8801184F859
:103EE0008121C4F88C011421284684F87F61FFF7F2
:103EF000B4FF206814222946FFF750FFD4F8A831F8
:103F00000133C4F8A83170BD38B5B0F87C418C429B
:103F1000054603D80023A0F87C3138BD641AA4B24A
:103F20007C302246014405F0F1FBA5F87C41F4E722
:103F300070B5044615460E4679B372B3FF2A0CD904
:103F40000023A0F87C31D0F8A031A2F580750133B0
:103F50002E44C0F8A0314FF48075B4F87C312B4466
:103F60009BB2B3F5807F0AD9A3F5807399B220463E
:103F7000FFF7CAFFD4F8A0310133C4F8A031B4F878
:103F80007C3104F17C002A463146184405F0B0FB30
:103F9000B4F87C211544A4F87C5170BD38B5037881
:103FA000532B2DD14378502B2AD18378012B27D83E
:103FB000C378012B24D843681D4603F0FF43B3F1B7
:103FC000FF4F1DD083681C4603F0FF43B3F1FF4F42
:103FD00016D00C49284605F0F5FA80B10A49284662
:103FE00005F0E6FA58B10749204605F0EBFA30B182
:103FF0000549204605F0DCFA003818BF012038BD1D
:104000000020FCE7DB0FC9C0DB0FC9402DE9FF41F1
:10401000044600F17C0800F18407B4F87C31012BE0
:1040200064D9002291B2481C98420D4654D22544CE
:1040300095F87C50532D04D1204490F87C005028F2
:104040002DD00132EEE700234EE06B4642461E467D
:10405000106851681D4603C50832BA422B46F7D195
:1040600038682860BA88AA803046FFF797FF30B9D1
:10407000D4F8A0310133C4F8A0310E2128E096E82D
:104080000F00251D07C52B800123A37400F0D2F972
:10409000D4F8A43160610133C4F8A431EDE711B163
:1040A0002046FFF731FFB4F87C310D2B1ED9D4F830
:1040B00098310133C4F898310E214046FFF7B2FE23
:1040C0000028C2D1D4F89C310133C4F89C310121BD
:1040D0002046FFF719FFA0E7234493F87B30532BCA
:1040E000B1D184F87C300123A4F87C3104B0BDE860
:1040F000F08138B50368044623B300F1180523683E
:1041000000221868294602F0A5F901281AD123686F
:10411000DA68642A13D9D4F8A0310133C4F8A03185
:104120006422D4F8943113442046C4F8943192B2F6
:104130002946FFF7FDFE2046FFF768FFDFE7002A6C
:10414000DDD0EEE738BD000070B50E4E0E4D0446D2
:104150003146204605F040FA60B90C4E0A4D314612
:10416000204605F025FA58B12046294604F070FF94
:104170000446F4E72046294604F068FF0446E7E7D2
:10418000204670BD000034430000B443000034C337
:1041900038B50446154600220846227003B1A270C5
:1041A00000F0FF43B3F1FF4F03D0FFF7CDFF606096
:1041B000A060E56038BD00002DE9F84F557906464E
:1041C0000C469246BDB191F8019089F00109DAF8E8
:1041D0000C80DAF8007065707DB92B463A4641468E
:1041E0002046FFF7D5FF0123A3703580A3687360D5
:1041F0003046BDE8F88FA946E9E79AF8045065B360
:104200009AF806504DB39AF8075035B39AF808500B
:104210001DB308F0FF43B3F1FF4F33D0DAF810B00D
:104220000BF0FF43B3F1FF4F2CD05C49404605F043
:10423000C9F9054688B15A49404605F0B9F905461D
:1042400058B15849584605F0BDF9D8B156495846B5
:1042500005F0AEF9051E18BF0125237813BBB9F18F
:10426000000F06D0A27822B11DB19AF80920012AC8
:104270000AD000233A4641462046FFF789FF002333
:104280003380B3E70025E8E7A37022704046FFF7CC
:104290005BFFC4E903776060A06040F201133380E4
:1042A0007060A5E735B901233A4641462046FFF73D
:1042B0006FFF9AE7D4F804904046494604F0C6FEE2
:1042C000FFF742FF394920F0004005F085F9054627
:1042D00008B10123CEE79AF80930012B07D02369F2
:1042E000FB1AB3F5FA7FDED8E7600123C8E7E3687D
:1042F0002F49DAF810002761A7EB0308B8F1140F73
:10430000E76028BF4FF0140804F0AAFFFFF71CFF76
:10431000494604F09BFEFFF717FF2649054605F0C6
:104320003DF9002835D12449284605F055F900B15A
:10433000214D2946484604F08BFEFFF705FF054650
:10434000404604F035FF1D4904F08AFF1C4905F082
:104350003BF8D4F8089080464946284604F076FE9B
:10436000FFF7F2FE08F1004705460146384605F022
:1043700033F928B94146284605F02EF958B1474689
:104380003946484604F064FEFFF7DEFE0123A060D4
:1043900085E7084DCDE72F46F2E700BF000034C4A3
:1043A00000003444DB0FC9C0DB0FC9400000E0410E
:1043B000E12E65420000C8C10000C8410000F04184
:1043C00000007A447047000010B5084B0446186896
:1043D0004FF47A73B0FBF3F000F086FB0022214625
:1043E0004FF0FF3000F040FB002010BD0C0000201B
:1043F00008B50B4B1A6842F400721A601A6842F44E
:1044000080621A601A6842F480721A60032000F019
:1044100019FB0F20FFF7D8FFFFF7D4FF002008BDDE
:10442000003C0240024A136801331360704700BF2A
:10443000DC210020014B1868704700BFDC21002000
:104440003C4B4A6930B5D3F8004244F00104C3F84C
:104450000042D3F8004224F47C54C3F80042D3F85D
:1044600000424D6A44EA0524C3F80042D3F81C52C6
:104470000120904025EA0005C3F81C52CD69C443D1
:10448000002D35D1D3F80C522540C3F80C52CB681F
:104490008D8845EA0345D30003F1804303F5C84303
:1044A0000A88C3F840528D6842EA0542C3F84422A4
:1044B0008A69204B8ABBD3F804222240C3F8042225
:1044C0000A6972BBD3F814221440C3F814420B6A71
:1044D000012B184B02BFD3F81C221043C3F81C0257
:1044E000D3F8002222F00102C3F80022002030BDE0
:1044F000012DDDD1D3F80C520543C3F80C520B68E3
:104500008D8845EA0345D30003F1804303F5C84392
:104510008A89C3F840528D68C6E7D3F80422024363
:10452000CCE7012A01BF034AD2F814320343C2F890
:104530001432CCE70064004070B50446002800F057
:104540008F8090F8383003F0FF021BB980F83920D3
:10455000FBF7CCFE022384F8383023681A6822F077
:1045600002021A601A6842F001021A60FFF762FF45
:10457000064623685D6815F0010557D05A68D107D3
:104580006BD5A269012A1A680CBF42F0800222F0A2
:1045900080021A60E269012A1A680CBF42F04002E8
:1045A00022F040021A60226A012A1A680CBF42F007
:1045B000200222F020021A60626A012A1A680CBFE7
:1045C00042F0100222F010021A60A26A012A1A6850
:1045D0000CBF42F0080222F008021A60E26A012AC7
:1045E0001A680CBF42F0040222F004021A60D4E9F7
:1045F00002210A4321690A4361690A43616801395A
:104600000A43DA611A6822F001021A60FFF712FF0A
:10461000054623685A68D20713D4586810F0010081
:104620001BD10123E06384F8383009E0FFF702FF73
:10463000801B0A289DD9032084F8380084F839505B
:1046400070BDFFF7F7FE401B0A28E2D903200023C4
:1046500084F8380084F83930F2E7042384F83830DD
:104660000120EDE702682DE9F84393685B010446F9
:104670000F4606D493681D0103D49368D80040F117
:10468000888094F83930012B00F08880012384F869
:10469000393094F83830222B0CBF3223122384F89F
:1046A00038309368590152D4936813F0006F14BFE7
:1046B0000126022602EB0613206BD3F88011D0E905
:1046C000025E01F00101C3F88011D3F880114FEAB6
:1046D000061C002D3DD105684EEA45550D43C3F833
:1046E0008051D3F884510169DFF8B480DFF8B490C9
:1046F00001F00F0125F00F050161C3F88451D3F8D3
:1047000084512943C3F8841162444169C2F8881175
:104710008169C2F88C11D3F8802142F00102C3F8FC
:104720008021FFF787FE054623681F499A6846BB2C
:1047300031EA020214D194F83830322B0CBF222314
:104740000123002084F8383084F8390011E0002675
:10475000B0E745EA0E05D0F804E045EACE05BDE72E
:104760007A1CE3D03FB90320002384F8380084F892
:104770003930BDE8F883FFF75DFE401BB842D3D95E
:10478000F1E7012E02D139EA0202D3E738EA020248
:10479000D0E7042384F838300120EAE70220E8E774
:1047A00000000310000300080300000410B50346D6
:1047B000084693F83820012AD1B201D0122922D11B
:1047C00093F83920012A1ED0012283F8392093F86A
:1047D0003820122A0CBF3222222283F838200021EE
:1047E0001A68D963546944F40F44546183F839104A
:1047F000536918B943F00203536110BD43F010032D
:1048000053610846F9E70220F7E770470268436BF7
:1048100070B502EB01140EB2D4F8B05105F00405E6
:104820009D60002D4FD1D4F8B0516D0D1D60D4F8AE
:10483000B051D4F8B441196204F00F041C6102EBCA
:10484000061405F00205D4F8B441DD60C4F3072472
:10485000DC6102EB0114D4F8B8511D75D4F8B851DD
:104860002D0A5D75D4F8B8512D0C9D75D4F8B8514A
:104870002D0EDD75D4F8BC511D76D4F8BC512D0A2F
:104880005D76D4F8BC512D0C9D76D4F8BC41240E35
:10489000DC762023E1B9D360536923F0020353612E
:1048A00090F83830222B02BF536923F40F43536131
:1048B00090F83830322B0CBF1223012380F83830A7
:1048C000FBF7BEFD70BDD4F8B051ED085D60AEE7FA
:1048D0001361536923F01003E1E7000003685A698C
:1048E000D10770B5044624D59E68524D9A68524946
:1048F0009868B54302EA010204D08A4202D04F4AC6
:10490000824316D15A6922F001025A6194F8382084
:10491000122A02BF5A6922F40F425A6194F83830C1
:10492000322B0CBF2223012384F838302046FFF7B6
:104930006CFF2368DA685B69920705D09B0703D593
:1049400000212046FFF762FF23681A695B6996071A
:1049500005D0DD0603D501212046FFF757FF236868
:10496000986959695A69C00707D5CE0505D5150458
:1049700042BFE26B42F00102E263986959695A69E9
:10498000800707D5890505D5120442BFE26B42F0C6
:104990000202E263986959695A69460707D54D05CD
:1049A00005D5100442BFE26B42F00402E26398694D
:1049B00059695A6910F0700F13D0090511D5120406
:1049C0000FD59A6902F07002402A2AD014D8202A02
:1049D0001FD0302A21D0102A16D09A6922F07002F6
:1049E0009A61E26B3AB104225A60012384F83830AC
:1049F0002046FBF76FFD70BD502A16D0602AECD11F
:104A0000E26B42F4807202E0E26B42F00802E26381
:104A1000E3E7E26B42F01002F9E7E26B42F02002BA
:104A2000F5E7E26B42F04002F1E7E26B42F0800210
:104A3000EDE700BF030000040003000800000310BE
:104A4000C06B70470749CA6822F4E062030212048F
:104A500003F4E063120C134343F0BF6343F40033E9
:104A6000CB60704700ED00E0164B30B5DC68C4F356
:104A70000224C4F10703251D042B28BF0423062D9F
:104A80004FF0FF3505FA03F38CBF033C002421EA05
:104A90000303A34005FA04F422EA0402002843EACF
:104AA0000203ACBF00F16040074A4FEA0313B8BFEE
:104AB00000F00F00DBB2AABF00F56140135480F88C
:104AC000003330BD00ED00E014ED00E0002808DB0D
:104AD0004209012300F01F0003FA00F0014B43F8E4
:104AE0002200704700E100E00138B0F1807F0BD276
:104AF0004FF0E023054A5861F02182F8231000208E
:104B0000072298611A6170470120704700ED00E0AC
:104B10004FF0E02304281A690CBF42F0040222F08F
:104B200004021A617047704708B5FFF7FCFF08BD23
:104B3000036810B5084C0246D9B210391820B1FBF1
:104B4000F0F0205CD06523F47F7020F003005F2933
:104B500088BF0430906510BDA49C000870B5044661
:104B6000FFF768FC0546002C72D0002384F834302F
:104B70002268022384F83530136823F001031360A0
:104B800021680B68DA072DD40B68324DA0691D40EF
:104B9000D4E901231343E268134322691343626992
:104BA0001343E26903431343226A13432B43656AA9
:104BB000042D02BFD4E90B26324313430B604A692C
:104BC000042D22F0070242EA050233D1A36A1A43F8
:104BD00098B9012B22D0022B00D05BBBE36ADB012A
:104BE00028D51FE0FFF726FC401B0528C8D9202345
:104BF0006365032084F8350070BDB0F5005F15D102
:104C0000032B17D801A050F823F000BF254C000853
:104C1000DD4B0008254C00081D4C0008E36AB3F189
:104C2000C07F07D1402363650120E3E7022BF9D958
:104C3000032BD3D04A612046FFF77AFFE26D3F2372
:104C40009340836000200123606584F83530D3E70A
:104C50000120D1E73F8010F090F83530022B03D0CF
:104C600080234365012070470268052380F83530B2
:104C7000136823F001031360002070472DE9F74FFC
:104C8000DFF8B4816D4ADFF8B89100230C68012782
:104C90009F4007EA040537EA040440F0B9804C68F5
:104CA00024F0100ABAF1020F16D14FEAD30E00EB2E
:104CB0008E0E03F0070BDEF820604FEA8B0B4FF0EF
:104CC0000F0C0CFA0BFC26EA0C0C0E6906FA0BF61C
:104CD00046EA0C06CEF82060D0F800B04FEA430E4A
:104CE0004FF0030C0CFA0EFC2BEA0C0B6FEA0C06CF
:104CF00004F0030C0CFA0EFC0AF1FF3A4CEA0B0C20
:104D0000BAF1010FC0F800C016D8D0F808C0D1F829
:104D10000CA006EA0C0C0AFA0EFA4AEA0C0CC0F8CF
:104D200008C0D0F804C02CEA0707C4F3001C0CFA32
:104D300003FC4CEA07074760C76837408E6806FAED
:104D40000EF63E43C660E60062D500260196D8F80E
:104D5000447047F48047C8F84470D8F8447007F4AA
:104D600080470197019F23F0030707F1804707F56C
:104D70009C3703F0030ED7F808A04FEA8E0E4FF0D1
:104D80000F0C0CFA0EFC2AEA0C0CDFF8B8A0504508
:104D90001DD006F1804606F50136B0423FD006F53B
:104DA0008066B0423DD006F58066B0423BD006F545
:104DB0008066B04239D0484539D006F50066B04229
:104DC00037D006F58066B0420CBF0726082606FAE3
:104DD0000EF646EA0C06BE601668EF4314F4803FF8
:104DE0000CBF3E402E431660566814F4003F0CBFC3
:104DF0003E402E435660966814F4801F0CBF3E4020
:104E00002E439660D668A40254BF3E402E43D6601F
:104E10000133102B7FF43AAF03B0BDE8F08F0126C9
:104E2000D5E70226D3E70326D1E70426CFE70526F8
:104E3000CDE70626CBE700BF00380240003C01402A
:104E400000140240000002400368F7B5DD07044685
:104E50003BD42368980700F18D8023681E0700F17A
:104E6000D88023685D072AD500230193924B934D88
:104E70001A6C42F080521A641B6C03F08053019349
:104E8000019B2B6843F480732B60FFF7D3FA06462F
:104E90002B68DA0540F1E180A368874D012B40F0D3
:104EA000E3802B6F43F001032B67FFF7C3FA824EB9
:104EB000054641F28837336F9B0740F1F680A269BF
:104EC000002A40F0FF80002015E07B4B9A6802F03A
:104ED0000C02042A07D09A6802F00C02082A0CD1AE
:104EE0005A68510209D5744B1B689A03B1D563689F
:104EF000002BAED1012003B0F0BD6268B2F5803F57
:104F000013D11A6842F480321A60FFF793FA6A4E9E
:104F1000054641F2883733689B039AD4FFF78AFA33
:104F2000401BB842F7D90320E5E7634DB2F5A02F47
:104F30002B6807D143F480232B602B6843F4803324
:104F40002B60E2E723F480332B602B6823F480236B
:104F50002B60002AD9D1FFF76DFA41F28837064657
:104F60002B6898037FF575AFFFF764FA801BB84292
:104F7000F6D9D8E7504B9A6812F00C0F07D09A6810
:104F800002F00C02082A16D15B68590213D44A4970
:104F90000B689A0702D5E368012BABD10868F823A8
:104FA00093FAA3F3B3FA83F22369934020F0F80253
:104FB00013430B6051E7E268414BDAB101221A60FA
:104FC000FFF738FA3C4D06462B689B070CD529683D
:104FD000F82393FAA3F3B3FA83F22369934021F001
:104FE000F80213432B6038E7FFF724FA801B0228EE
:104FF000EAD998E71A60FFF71DFA2F4E0546336885
:105000009F077FF52AAFFFF715FA401B0228F6D954
:1050100089E762692A4B82B10122C3F8802EFFF72B
:1050200009FA254E0546736F98073FF51AAFFFF74B
:1050300001FA401B0228F6D975E7C3F8802EFFF766
:10504000F9F91D4E0546736F99077FF50AAFFFF713
:10505000F1F9401B0228F6D965E7FFF7EBF9801B51
:1050600002287FF615AF5EE7052B04D12B6F43F0C6
:1050700004032B6715E72A6F22F001022A672A6FC3
:1050800022F004022A67002B7FF40FAFFFF7D2F95A
:1050900041F2883706462B6F98077FF510AFFFF770
:1050A000C9F9801BB842F6D93DE7FFF7C3F9401BA9
:1050B000B8427FF600AF36E700380240007000408B
:1050C000000047422C4DAB6803F00C03082B3FF463
:1050D00011AF2A4B022A4FF000021A663ED1FFF7A9
:1050E000A9F906462B68990132D447F6C07696FA9C
:1050F000A6F64FF44032B6FA86F692FAA2F24FF0D4
:105100007061B2FA82F091FAA1F1D4E90732134347
:10511000626AB2401343A26A5208013A82401343C2
:10512000E26AB1FA81F102FA01F10B436B60134BB1
:10513000114D01221A66FFF77DF904462B689A018A
:105140003FF5C1AEFFF776F9001B0228F6D9EAE673
:10515000FFF770F9801B0228C4D9E4E6FFF76AF96B
:1051600004462B689B017FF5AEAEFFF763F9001B89
:105170000228F6D9D7E600BF0038024000004742B7
:10518000194B9A6802F00C02042A28D0082A28D168
:105190005A685968586811F4800F02F03F0247F6C8
:1051A000C07191FAA1F3B3FA83F300EA010020FA87
:1051B00003F014BF0D4B0E4BB3FBF2F20A4B5043FE
:1051C0005B684FF4403292FAA2F2B2FA82F203F430
:1051D0004033D34001335B00B0FBF3F0704703482A
:1051E00070470348704700BF0038024040787D0197
:1051F0000024F400554B1A6802F00F028A422DE990
:10520000F04104460D462FD32268960736D4D007C6
:105210003CD44E4B1A6802F00F02AA4200F286807C
:105220002268510700F18A80130707D5484A21698F
:10523000936823F4604343EAC1039360FFF7A0FF40
:10524000434BF0229B6892FAA2F2B2FA82F203F088
:10525000F003D3403F4AD35CD8403F4B18600F2047
:10526000FFF7B2F8002007E0CAB21A701B6803F01B
:105270000F038B42C8D00120BDE8F0813449A068FB
:105280008B6823F0F00303438B60C0E76268304B08
:10529000012A1DD11B6813F4003FECD02C4EB368DB
:1052A00023F003031343B360FFF7C4F86368012BD3
:1052B000074641F2883815D1B36803F00C03042B7C
:1052C000A7D0FFF7B7F8C01B4045F5D90320D3E7B7
:1052D000911E01291B6802D813F0007FDDE713F04F
:1052E000020FDAE7022B0AD1B36803F00C03082B94
:1052F0008FD0FFF79FF8C01B4045F5D9E6E7032B99
:105300000FD1B36803F00C030C2B82D0FFF792F897
:10531000C01B4045F5D9D9E7FFF78CF8C01B4045C5
:10532000D4D8B36813F00C0FF6D172E7EAB21A7052
:105330001B6803F00F03AB429DD171E70449E0689D
:105340008B6823F4E05303438B606DE7003C02401D
:1053500000380240AC9C00080C000020014B18688B
:10536000704700BF0C000020084B4FF4E0529B68D0
:1053700092FAA2F2B2FA82F203F4E053D340044A62
:10538000D35C044A1068D840704700BF0038024020
:10539000AC9C00080C000020084B4FF460429B6856
:1053A00092FAA2F2B2FA82F203F46043D340044AC2
:1053B000D35C044A1068D840704700BF00380240F0
:1053C000AC9C00080C0000200368DA6842F001027F
:1053D000DA601A6842F001021A600020704770B566
:1053E00090F83830012B04464FF002001FD0012303
:1053F00084F83830236884F839009A6822F47F42B0
:1054000022F077029A600A68502A5BD02CD8202AB2
:1054100000F093800CD8002A00F08380102A00F05E
:1054200086800123002084F8393084F8380070BD6C
:10543000302A00F08880402AF3D14868CE68196A83
:105440001D6A25F001051D629A6921F00A0122F00A
:10545000F00242EA061201439A6119629A6822F048
:10546000700242F047022BE0B2F5805F25D012D8DF
:10547000602A3ED0702AD4D1D1E901529868C96817
:105480002A4320F47F4042EA012202439A609A684C
:1054900042F0770214E0B2F5005FC2D1D1E90152C7
:1054A0009868C9682A4320F47F4042EA01220243F7
:1054B0009A609A6842F4804202E09A6822F00702F9
:1054C0009A60AEE74868CE68196A1D6A25F0010542
:1054D0001D629A6921F00A0122F0F00242EA0612E6
:1054E00001439A6119629A6822F0700242F05702F1
:1054F000E6E7186A4D68CE6820F0100018629969D6
:105500001A6A21F4704122F0A00242EA051241EA2F
:10551000063199611A629A6822F0700242F06702BD
:10552000CEE79A6822F0700242F00702C8E79A6854
:1055300022F0700242F01702C2E79A6822F070026D
:1055400042F02702BCE79A6822F0700242F037026C
:10555000B6E770477047704703681A69910710B53E
:1055600004460ED5DA6892070BD56FF002021A6175
:10557000012202769B699B0777D0FDF77FFF00230E
:10558000237623681A69500710D5DA6851070DD5BC
:105590006FF004021A61022222769B6913F4407FA5
:1055A000204668D0FDF76AFF0023237623681A6936
:1055B00012070FD5DA6810070CD56FF008021A61D0
:1055C00004222276DB69990720465AD0FDF756FF60
:1055D0000023237623681A69D20610D5DA68D0062C
:1055E0000DD56FF010021A6108222276DB6913F4E0
:1055F000407F20464BD0FDF741FF002323762368F0
:105600001A69D10708D5DA68D20705D56FF001020B
:105610001A612046FDF7F2FE23681A69100608D5C4
:10562000DA68110605D56FF080021A61204600F095
:10563000FEF923681A69520608D5DA68500605D5BE
:105640006FF040021A612046FFF785FF23681A6950
:10565000910622D5DA6892061FD56FF02002204607
:105660001A61BDE8104000F0E1B9FFF772FF204673
:10567000FFF770FF83E7FFF76CFF2046FFF76AFF35
:1056800092E7FFF766FF2046FFF764FFA0E7FFF70A
:1056900060FF2046FFF75EFFAFE710BD2E4A0368AC
:1056A000904212D0B0F1804F0FD0A2F57C429042D0
:1056B0000BD002F58062904207D002F580629042E2
:1056C00003D002F57842904219D14A6823F0700362
:1056D0001343214A904229D0B0F1804F26D0A2F541
:1056E0007C42904222D002F5806290421ED002F5A8
:1056F000806290421AD002F57842904216D0174A42
:10570000904213D002F5806290420FD002F5806281
:1057100090420BD0A2F59832904207D002F58062F9
:10572000904203D002F58062904203D1CA6823F40C
:105730004073134303608B68C3620B688362064B3C
:10574000984203D003F58063984201D10B6903634B
:1057500001234361704700BF000001400040014049
:1057600010B50446A0B190F8393003F0FF021BB920
:1057700080F83820FDF718FE0223206884F83930BD
:10578000211DFFF78BFF012384F83930002010BD65
:105790000120FCE710B50446A0B190F8393003F0C1
:1057A000FF021BB980F83820FDF730FE0223206885
:1057B00084F83930211DFFF771FF012384F8393057
:1057C000002010BD0120FCE710B50446A0B190F800
:1057D000393003F0FF021BB980F83820FDF72EFEA8
:1057E0000223206884F83930211DFFF757FF012379
:1057F00084F83930002010BD0120FCE770B5046A40
:105800001A4E24F0010404628469056AB04224F04F
:10581000030429D0B0F1804F26D0A6F57C46B042D3
:1058200022D006F58066B0421ED006F58066B042F2
:105830001AD006F57846B04216D006F57056B0423A
:1058400012D0A6F59436B0420ED044F001021B01EE
:10585000DBB222F0F0021A4301F00A0125F00A033C
:1058600019438261016270BD2243F0E700000140EC
:10587000F8B590F83830012B04460E4615464FF027
:1058800002001AD0012384F8390084F83830D1E9B5
:1058900000122068F3688DB9FFF7B0FF2368B16884
:1058A0009A6922F00C029A619A690A439A6101236B
:1058B000002084F8393084F83800F8BD042DB6682B
:1058C00022D1056A25F0100505628769D0F820E02D
:1058D00027F4407C1D034CEA022C09012CF4704C87
:1058E000ADB22EF0A00E01F0A00145EA0C0541EA90
:1058F0000E0185610162836923F4406383618369DA
:1059000043EA06268661D2E7082D056A1CD125F4F4
:1059100080750562C769056A27F0030717431B01F5
:105920000902DBB227F0F00725F4206501F42061BD
:105930001F432943C7610162C36923F00C03C3619C
:10594000C3691E43C661B2E725F480550562C56987
:10595000076A25F4407545EA02251B03090325F46F
:1059600070459BB227F4204701F420412B43394373
:10597000C3610162C36923F44063C361C36943EA3D
:105980000626DFE7036A10B501248C4023EA0403EE
:105990000362036A8A401A43026210BD082910B5E7
:1059A000044600681CD00CD889B1042914D0012207
:1059B000FFF7E8FF2268136843F00103136000203B
:1059C00010BD0C29F3D1C36843F0100302E0C36893
:1059D00043F00203C360EAE7C36843F00403F9E756
:1059E000C36843F00803F5E710B590F83830012B91
:1059F00002464FF0020018D0136882F83900586848
:105A00000C68496820F0700058605868204358605E
:105A1000986820F0800098609868014399600020A1
:105A2000012382F8393082F8380010BD7047704782
:105A30000368DA6822F49072DA605A6922F001028F
:105A40005A61202380F83A30704700002DE9F8436E
:105A50000368C1681A69044622F440520A431A6175
:105A60002569A268D968C0692A43656921F416418D
:105A70002A4321F00C0102430A43DA605A69A16902
:105A800022F440720A43B0F5004F5A61844A40F054
:105A90008680934203D002F5806293424AD1FFF799
:105AA0007BFC67684FF019094FF0640809FB00F3AD
:105AB0007F00B3FBF7F3B3FBF8F31F01FFF76CFCB8
:105AC000656809FB00F06D00B0FBF5F5FFF764FCBD
:105AD000636809FB00F65B00B6FBF3F6FFF75CFCBE
