:020000040800F2
:1000000000000220697A0008B97A0008B97A00086D
:10001000B97A0008B97A0008B97A0008000000002F
:1000200000000000000000000000000081760008D1
:10003000B97A00080000000011770008DB230008EF
:10004000B97A0008B97A0008B97A0008B97A0008C4
:10005000B97A0008B97A0008B97A0008B97A0008B4
:10006000B97A0008B97A0008B97A0008B97A0008A4
:10007000B97A0008B93D0008B97A0008BD3D00080A
:10008000B97A0008B97A0008B97A0008F1040008C2
:10009000FD040008B97A0008B97A0008B97A0008A6
:1000A000B97A0008B97A0008B97A0008B97A000864
:1000B000753300088533000895330008B97A0008C5
:1000C000B97A0008B97A0008B97A0008B97A000844
:1000D000B97A0008713D00087D3D0008893D00089F
:1000E000B97A0008B97A0008B97A0008B97A000824
:1000F000B97A0008B97A0008B97A0008B97A000814
:10010000B97A0008B97A0008B97A0008B97A000803
:10011000953D0008A13D0008B97A0008B97A0008A9
:10012000B97A0008B97A0008B97A0008B97A0008E3
:10013000B97A000800000000000000000105000876
:100140000D050008B97A0008B97A0008B97A0008E4
:10015000B97A0008B97A0008B97A0008AD3D0008FC
:10016000B97A0008B97A0008B97A0008B97A0008A3
:10017000B97A0008B97A0008000000000000000009
:08018000B97A0008B97A000801
:1001900010B5054C237833B9044B13B10448AFF3C1
:1001A00000800123237010BD7800002000000000B3
:1001B00080A3000808B5034B1BB103490348AFF304
:1001C000008008BD000000007C00002080A3000823
:1001D000D0F8F83010B50446E3B1F83004F0A4FDCF
:1001E000D4F8F820C4F840019369C4F84431516848
:1001F000C4F848119168C4F84C11D268C4F8502171
:10020000C3F3021284F864211A0C1B0E84F86621D1
:1002100084F8653110BD000010B5D0F8F830154AEB
:1002200093428AB0044620D1002305930023012283
:10023000694604F1F800CDE90632CDE90033CDE995
:100240000233CDE90823049304F06EFA84F86801C0
:100250002046FFF7BDFF04F5B673C4F8283104F556
:10026000C473C4F82C310AB010BD034A9342DDD1E7
:100270000E23DAE7006400400068004070B50623F2
:1002800000254FF48032C0E93F354FF44013C0E9F8
:1002900042230123C0E9453300F5B673C0F8283185
:1002A00000F1F80600F5C4730446C0F8F810C0F871
:1002B0002C31C0E94755C0F80451C0F81051C0F8BE
:1002C0002451304604F0ACFA84F867012046FFF769
:1002D0007FFF2046FFF7A0FF2946304604F0DAFBF7
:1002E0002046BDE87040FFF773BF000010B50368FB
:1002F000384A93428AB036D1374B002401941A6CA5
:1003000042F000721A641A6C02F000720192019AB3
:1003100002941A6B42F001021A631B6B079403F0FC
:1003200001030293029B4FF4C05002234FF0030CD1
:10033000CDE9050305A909232848CDE908C304F040
:1003400011FE22460721132004F002FD132004F0C1
:1003500031FD14202246062104F0FAFC142004F09A
:1003600029FD0AB010BD1E4A9342FAD11A4B1D480E
:10037000002403941A6C42F080621A641A6C02F032
:1003800080620392039A04941A6B42F002021A6389
:100390001B6B079403F0020304934FF44052049B39
:1003A0000223CDE9052303210923CDE9081305A97B
:1003B00004F0D8FD224607213F2004F0C9FC3F206D
:1003C00004F0F8FC40202246062104F0C1FC402045
:1003D000C5E700BF00640040003802400000024052
:1003E000006800400004024038B50446D0F82801F7
:1003F0000D4611461A460023C0E90233026105602A
:10040000143009F0E5FA0A21C4F8585104F1F80053
:1004100004F09CFA00280CBF01230023C4F83C31EF
:1004200008BFD4F8603184F8690108BF0133204661
:1004300008BFC4F86031FFF7CBFE94F8690138BDFE
:10044000204B984270B5044602D01F4B98421CD1F5
:10045000A4F1F800626B01211368C0F83811D0F8DC
:100460005C11C0F854310131C0F85C111749884261
:1004700019D1591E04290ED8DB00BD33516919501A
:100480001D1891696960FFF7A3FE2268536943F064
:100490000203536170BD6FF400752B440B2BF2D82F
:1004A000DB000133EAE76FF400710B440B2BEAD851
:1004B000DB00074D516901335E1959519169716033
:1004C000E1E700BFF401002008080020FC00002044
:1004D00010070020044B984202D1F838FFF778BE8D
:1004E000024B9842F9D07047F40100200808002020
:1004F000014804F067BB00BFF4010020FFF7F8BF1C
:10050000014804F05FBB00BF08080020FFF7F8BFF8
:1005100008B5044907F024FBBDE80840024907F08C
:1005200033BB00BF00A00CC600A00C462DE9FF4164
:100530000E4681610446016901923046154608F075
:10054000F7FE2946206109F0B7F900283ED104F1F1
:10055000100705F100403968039009F0ADF900B1CA
:1005600003AFD7F80080E769C4F8108039464FF030
:100570007E5008F0DBFEA16808F0E2FF61690546E5
:10058000304608F0D3FE0146284608F0D9FF216A1C
:100590000546384608F0D4FF0146284608F0C8FE54
:1005A000216820620546304608F0CAFF61680746A8
:1005B000404608F0C5FF0146384608F0B9FE294616
:1005C00008F0B6FE666104B0BDE8F08101AFC0E797
:1005D000F8B510220D460021044609F021FA002347
:1005E000C4E90433C4E90633D5E9006C18461D4656
:1005F0001946664526D056F8042B002AF9D092F801
:100600004570032FF5D8DFE807F002080D14032921
:10061000EFDC44F821200131EBE7002DE9D1226124
:100620000125E6E70128E4DC04EB800701307A616C
:10063000DFE7002BDDD1E26182F8B530A2F8463069
:100640000123D6E7094D0A48AB69A3676B69636765
:1006500001F086F8E067064801F090F82369C4F8D5
:10066000800013B1AA69C3F84C21F8BD78150020A9
:10067000B411002038B504460846154608F00CFFB2
:1006800009F024F908F008FFC4F89C00284608F097
:1006900003FFC4F8B40038BD30B589B0CDE90221FC
:1006A00001931D4B1A6A5B6A0592002BD8BF134653
:1006B000002A069317DD8A42B4BF05AC03AC514251
:1006C00025680791A942C8BF07AC24680394029C1F
:1006D0000791A242B4BF05AA02AA1468A142C8BFEA
:1006E00007AA12680292002B0CDD019A9342B4BF54
:1006F00006AA01AA5B42116807938B42C8BF07AAEA
:1007000013680193039B5B424365029B8365019BD6
:10071000C36509B030BD00BF781500200023C38732
:1007200080F84030836470472DE9F0410E4681EA3D
:10073000E17117460446A1EBE6711A461BB9C3875F
:10074000114641481CE0222990F83E5009DC012363
:1007500080F83F3065BB80F8405000231A46394688
:10076000EFE72DBB90F83F30002B6AD03648036985
:1007700001224BB984F8402084F83F301A461946CC
:10078000BDE8F041FFF788BF002EE287B4BF012229
:100790004FF0FF3284F841209B6E84F84050C4E94A
:1007A000113503F0BBFF94F83E30E064002B44D0D9
:1007B000254D2B6943B90023012284F83E3084F88B
:1007C00040201A461946BCE703F0A8FFE36CC01AA4
:1007D00041F657339842EED82B69626C9B6E9B1A98
:1007E000002BB8BF5B42C3F500522E2AA36406DC7F
:1007F000002384F83E301A4619462846C0E7134BBA
:100800005B6A5B00B3F5A96FC4BF032193FBF1F3EF
:1008100040F25451D8BF4FF4E1738A4208DCA3F58B
:10082000E173534340F25552B3FBF2F303F5E17326
:1008300094F941205343002282E794F83F30002B83
:100840008BD10023BDE700BF1410002078150020D5
:100850002DE9F0477D4F0446FD6903F05FFF7C4AB8
:10086000937906462BB19368C31A632B8CBF002380
:10087000012397F82020012A00D063B90023C4E99E
:1008800007336371A371A3732374E374A38284F8A1
:100890002C3084F83C307A692AB1637913B1B4F909
:1008A0000A305B425365BF6927B163790BB1B4F974
:1008B0000A307B65002D3CD0002A3CD0D06C08F07B
:1008C000EBFD20F00049002F38D0F86C08F0E4FD73
:1008D00020F00048B4F90A0008F0DEFD5D498246C8
:1008E00008F02EFE4946074608F0D2FF48B33846C6
:1008F000414608F0CDFF071E18BF01275649504654
:1009000008F01EFE4946824608F0C2FF30B141465B
:10091000504608F0BDFF003818BF0120637993B935
:100920006B6585F8B530C4E90733E374A38284F8B6
:100930002C30BDE8F0874FF00009C4E74FF0000805
:10094000C8E70027DAE7E37CABB9237D9BB994F8CD
:100950003C2082B9237C13B3012387EA0301C4E955
:100960000732E3743D4B61751A60AB6EA361C4E955
:10097000093684F82C20E27C237D12BB13BB6B6507
:1009800085F8B53094F83C30002BD2D0A37B002BF7
:10099000CFD1A379002BCCD184F83C30C9E7A27920
:1009A000002AE8D0012222757A4062752B4A136032
:1009B000AA6EA261C4E90733C4E9092684F82C3081
:1009C000D9E733B1A37923B96B6585F8B5302375C1
:1009D000AFE7637D5BB100236B6585F8B530002F11
:1009E000A7D06375AB6EA361C4E90936A1E794F89B
:1009F0002C302BB30AB394F91130B4F90C205B42BC
:100A00005343226B03EBD3735B10B21A6B65952AC9
:100A10004FF0000385F8B5308BD91049AA6E626299
:100A20000A6884F82C300132022AA6620A6080DD4E
:100A3000012284F83C20E374C9E794F91230DCE722
:100A400070B9686585F8B50073E700BF1410002021
:100A5000801600206666663F3333333F98000020DF
:100A6000002A51D094F91130B4F90C70626AA1696E
:100A7000E06913FB07F36B65012385F8B530AB6EB6
:100A80009A1A002AB8BF5242132AA3EB0102C8BF28
:100A9000C4E9093682EAE2730028A3EBE27336DD8B
:100AA0004FF4104242439A4207DC00236B6585F8FD
:100AB000B530E374A36B0344A363E86C08F0ECFC6B
:100AC00020F00048384608F0E7FC1B4908F038FDE4
:100AD0000146404608F0D2FE00283FF42AAFA36A40
:100AE000F31A4F2B7FF625AF636B144A266301334D
:100AF0006363136801331360012384F82C300023EF
:100B00006B6585F8B53014E794F91230ACE7B3F5AE
:100B1000104FD2DBA06B002AACBF01224FF0FF3296
:100B20004FF4104CB3FBFCF3184453430CFB03137A
:100B3000A063A361C1E700BF9A99993E9800002085
:100B400070B518460C46154608F0A2FC2946064624
:100B5000204608F0EBFB002108F0A4FE58B129461E
:100B6000304608F0E5FB2146054608F0A5FE00B931
:100B70002C46204670BD3146284608F0D7FB21465A
:100B8000054608F07BFEF2E72DE9F04F9346554A03
:100B9000D2F800A0054685B00E461846BAF1000FFF
:100BA00000F09C80D2F80490B9F1000F00F096801C
:100BB00093680093002B00F09180D3680193002B81
:100BC00000F08C8008F068FC0446304608F064FCB5
:100BD0000646584608F060FC804628F0004126F0A2
:100BE000004008F0A5FB24F0004108F047FE002873
:100BF000CBF1000014BFBE27962708F04DFC3A4900
:100C000008F09EFC38498346304608F099FC0646B9
:100C10000146584608F08AFB214608F089FBFFF799
:100C200077FC31460290584608F082FB214608F0D6
:100C30007FFBFFF76DFC2C498346404608F080FCA3
:100C400001460390304608F073FB214608F070FB24
:100C5000FFF75EFC039B80463146184608F066FBB2
:100C6000214608F065FBFFF753FC0446DAF8540010
:100C700008F012FC029902463B462846FFF760FF47
:100C800008F024FECAF85400D9F8540008F004FC17
:100C9000594602463B462846FFF752FF08F016FE2B
:100CA000C9F85400009B586D08F0F6FB4146024617
:100CB0003B462846FFF744FF08F008FE009B5865B6
:100CC000019B586D08F0E8FB3B460246214628464A
:100CD000FFF736FF08F0FAFD019B586505B0BDE847
:100CE000F08F00BF14100020F4FD343F10B50C4607
:100CF00020460A4908F0CCFD20B12046084908F0FA
:100D000017FB04460749204608F0D6FD20B12046CF
:100D1000034908F00BFB0446204610BD000034C315
:100D20000000B443000034432DE9F8432E4ED6F8BA
:100D300010800446B8F1000F4FD0006B08F0ACFBF8
:100D40000746606B08F0A8FB284B05469969D8F860
:100D5000540108F0EBFA264908F0F2FB4FF0645119
:100D600008F0EEFB01463046FFF7C0FF00F10040FF
:100D700007F096FF1AA3D3E9002307F0E9FF1D4B04
:100D8000002208F00FF908F07DFA064606F02AFF67
:100D90008046304606F0B2FE01460646384608F068
:100DA000CFFB41468146284608F0CAFB014648462B
:100DB00008F0BCFA08F08AFD41462063384608F086
:100DC000BFFB31460746284608F0BAFB01463846C5
:100DD00008F0AEFA08F07AFD6063BDE8F88300BF62
:100DE0004AD8124DFB21094014100020781500202C
:100DF0000000B44300806640134B90F83D2093F808
:100E0000203010B50446A2B91A1E18BF0122012BCA
:100E100084F83C2084F83D300DD10023C4E90C3324
:100E2000A363D4E90D23216B2046BDE81040FFF7F2
:100E3000ABBE0022EBE71BB103F0FB03032BF0D1A9
:100E40002046FFF771FFECE71410002082B02DE977
:100E5000F74304460D460B93002A40F03D818E4F28
:100E600097F82030062B0BA875D100F07BFC0146CB
:100E7000284608F05BFA01468748FFF737FF4FF036
:100E80008C4108F05DFB854908F00EFC844905465D
:100E900008F0FEFC002861D04FF08C41284608F095
:100EA00047FA054697F820603B692561002E69D115
:100EB000002B00F0DF804FF08043E361774B23622B
:100EC0000BA800F051FC774900F1004008F038FB16
:100ED0007549A061009108F0EFFC00284BD104F1A6
:100EE000180672493068019108F0C8FC00B101AEE3
:100EF0003368E169A36125F0004008F0D3FC0028C5
:100F00003BD029466A4A04F15400FFF70FFB6949B8
:100F100008F016FBA16908F00BFA256A6061294602
:100F200008F0CAFC58BB04F1140605F10040316812
:100F3000019008F0C1FC00B101AE3068606108F0BA
:100F4000C5FC3D69D5F854316865636003B0BDE800
:100F5000F04302B0704700F003FC88E74FF08B418C
:100F6000284608F09FFC00289CD04FF08C41284672
:100F700008F0DCF995E76E46B3E70020CAE704F114
:100F80002006D2E70BB100229A65022E0AD1A06A90
:100F9000494920F0004008F085FC40B1DFF81C8191
:100FA000012006E0062EF9D0002E63D00020DFF8E5
:100FB0001081C4F81C80002860D1002E60D0414B05
:100FC00023620023A361E6B9F86D08F065FA3E4993
:100FD00000F1004008F0B4FA3349A061009108F034
:100FE0006BFC00284ED104F118093049D9F80000F3
:100FF000019108F043FC08B10DF10409D9F8003063
:10100000A36125F00040414608F04CFC00283BD08D
:10101000062E06D02946264A04F15400FFF786FA28
:101020000546A169284608F083F9256A60612946CA
:1010300008F042FC50BB04F1140605F10040316891
:10104000019008F039FC00B101AE3B69356865617B
:10105000002B3FF47BAF25F000404FF07E51D3F8DA
:10106000546108F01FFCA0B13146284608F060F931
:1010700060606BE7DFF8548000209AE7144B9FE72D
:10108000144B9DE7E946B0E70025CAE704F12006C6
:10109000D3E766605AE700BF141000200000B44395
:1010A000000080C53333B33E00008243000082C39A
:1010B00000007A440000204000000C420000C040C4
:1010C0000000C841000034420AD7233E00004040DF
:1010D00000000C4300007043012A7FF437AF0BA8D7
:1010E00000F04CFB0146284608F020F9014636483E
:1010F000FFF7FCFD4FF08C4108F022FA334908F06D
:10110000D3FA3349054608F0C3FB00284FD04FF00F
:101110008C41284608F00CF905462E4925F0004080
:1011200008F0C0FB00283FF411AF2B49D4F8980019
:1011300008F006FA2849C4F894000746D4F89C0041
:1011400008F0FEF92549C4F898000646284608F03C
:10115000F7F93146C4F89C00054608F0E7F8D4F8E2
:10116000841008F0EDF9D4F888108046284608F07D
:10117000E7F90146404608F0DBF831468046304644
:1011800008F0D6F80146284608F0D0F8394608F0AD
:10119000CFF8D4F88C1008F0D3F90146404608F097
:1011A000C7F80146206808F0C3F82060CEE64FF08B
:1011B0008B41284608F076FB0028AED04FF08C41DA
:1011C000284608F0B3F8A7E7141000200000B44345
:1011D000000080C5000020411F856B3F713D8A3FA4
:1011E0002DE9F04F9A4E9B4F96F820203369DFF897
:1011F0006882012AB9B0044633D19849002B00F027
:101200006081C3F8AC2000225A65D3F85431636082
:101210004B6923600023FB619148C7F8248000F0EC
:101220009FFAA0608E4800F0A9FAE06065684FF070
:101230008C473946284608F035FB002840F00181EC
:101240004FF000084FF08C474146284608F016FB47
:10125000002800F015812846394608F069F805464F
:10126000F2E793B1062A14BF7E497F49C3F8E8101C
:101270004FF08241C3F8F010002A67D0D11F012936
:1012800094BF00210121C3F8AC10784B1B78934226
:101290001CD0734800F064FAA060714800F06EFA48
:1012A0003269E060002323616361A3616366A36622
:1012B000E3665AB1D2F8541161600021C2E91511F8
:1012C000C2F8C830C2F8CC30C2F8D03096F820301E
:1012D000DFF89CA1DA1F012A3CD8D6F81090B9F1AA
:1012E000000F31D0B9F96E0008F0D6F8D4F828B064
:1012F00036905946054608F023F95E4908F0D4F9BE
:1013000001466062284608F0B9FA08BB04F12403DC
:101310001968359305F10040379008F0CDFA359BF8
:1013200000B137AB1B68544963622BF0004008F0F2
:10133000A5FA08B100236362606A08F0C7FAD9F819
:101340005431C9F85400636000231CE011469AE749
:1013500036ABDDE7022B5CD1A56A474925F000409A
:1013600008F0A0FA002854D04449284608F0E8F8CC
:1013700001466062A06807F0D9FF01463448FFF7D4
:10138000B5FC0123A0608AF8003096F82030062BC7
:1013900014D84D22DA40D24312F001050ED1DFF805
:1013A000C090CC2209F10401684608F011FBD9F87D
:1013B0000030A1682A462046FFF748FD256C2E49DB
:1013C00025F0004008F06EFA002837D0216DD7F8DC
:1013D0001C90284608F0B4F8616CE06308F0B0F89F
:1013E000494607F0A5FFF861E56CD7F81C90284640
:1013F000494608F043FA00B94D46D4F848902946CA
:10140000484608F059FA00B14D46FD61C7F82480FE
:101410000CE79AF8003000256562002B94D0104844
:1014200000F09EF93369A060256165616566A56677
:10143000E566002B88D0D3F8543184E70023E363BA
:10144000D2E72846394607F071FF0546F1E600BFAE
:1014500014100020BC0000200000A04078150020DF
:10146000B41100209A99993F333333400000002093
:10147000940000200000254400000C423480373ADC
:10148000DFF84480D4F80090D8F8007065604946D1
:10149000384608F0F3F900B94F46D8F808803846C6
:1014A000414608F0EBF900B14746336927600BB1BC
:1014B000C3F84C5196F82020044B1A7039B0BDE89F
:1014C000F08F8B69A3E600BF781500200000002094
:1014D00084B038B5044605A8256880E80E00013DB3
:1014E000709BEDB203EBC505B5F8010040BA80B2C0
:1014F00007F0D2FF1A4908F023F81A4908F0D4F887
:10150000194907F013FFA0612B79E8781B0943EA1A
:10151000001007F0C1FF154908F012F8144908F04F
:10152000C3F8144907F002FF20622B7968791B0287
:1015300003F47063184307F0AFFF0F4908F000F899
:101540000B4908F0B1F80D4907F0F0FE0C49A06214
:1015500007F0F6FF20632046BDE8384004B070472E
:10156000DA0FC94100FF7F47DA0F49410000A0416F
:1015700000F07F45000020410000A0420000204212
:101580003333B33FCA0004488D320823024401F5C7
:101590008071FEF729BF00BFFC00002030B5EFB01E
:1015A00004681E494FF4D67203A808F011FA1C4AC9
:1015B0001068516801AB03C3FC2321468DF80B3042
:1015C00001AA082303A8FEF70FFF05F0F9FD012883
:1015D000144C0CD06368012B02D8012005F0CCFC20
:1015E00063680120B0FBF3F05843C0F101002368A9
:1015F0004FF0E02158434D698C694FF47A7358439A
:1016000000238A69A242FCD0234428BF5B199B1A9D
:10161000984201D86FB030BD1446F2E7FC000020BC
:10162000089D00080400002084B02DE9F84304461A
:1016300009A8E669769D80E80E00304607F030FB89
:1016400027A3D3E900238046894607F0FDFD002843
:1016500038D125A3D3E900234046494607F0FEFDD3
:10166000002831D1676A2249E661384608F010F94E
:1016700060BB2049384608F015F948BB6762676BC4
:101680001D49384608F004F920BB1C49384608F0CB
:1016900009F908BB67632E70637F6B70A37FAB7023
:1016A000E37FEB7094F824302B7194F825306B7144
:1016B00094F82630AB7194F82730EB71BDE8F8430D
:1016C00004B070470E4ECDE70E4ECBE7084FD5E77E
:1016D000084FD3E7084FDDE7084FDBE7AFF30080A3
:1016E0004AD8124DFB2129C04AD8124DFB2129406E
:1016F000000020C100002041000090C10000904186
:10170000DA0F49C1DA0F494130B50A4441F22105E7
:1017100091420FD011F8013B80EA032008234400D6
:10172000013B00044CBF84EA0500204613F0FF0390
:10173000F5D1EDE780B230BD38B50D46044611460F
:1017400028461A4601F05CFF6422002101F089FF5F
:101750009DF81030C4F8CC5084F86430E56038BD92
:10176000406B7047006C7047C06C7047806A20B156
:10177000081A90428CBF002001207047806B704790
:10178000406C7047F8B590F8645007460C461E460A
:101790006DB908460A44904204D010F8013B1D443C
:1017A000EDB2F8E7B54214BF00200120F8BD013DBD
:1017B000012D15D8A1B1052A12D94D88AB1D934230
:1017C0000ED104220020FFF79FFF2A46A11DFFF73C
:1017D0009BFFB6B2B885A7F86000FE858642E2E7B7
:1017E0000020E3E7C3682DE9F74F0446002B5DD0E6
:1017F000186800285AD004F165080022414604F018
:101800009DFF0128A06051D10023237494F8643017
:10181000002B40F0B980636E9B4A23F07F4323F096
:10182000FF03934242D194F86750012D41D194F8BF
:101830006820A318414693F8693004322046FFF728
:10184000A1FF002835D0B4F9690007F025FE8F49C3
:1018500007F076FE4FF0605107F072FE2063B4F996
:101860006B0007F019FE894907F06AFE4FF06051DE
:1018700007F066FEA063B4F96D0007F00DFE834922
:1018800007F05EFE4FF0605107F05AFE257460636A
:10189000A3690133A36102F041FF6062A06204F119
:1018A0003C03303494E8070083E8070003B0BDE848
:1018B000F08F94F86730032BF8D194F86820A318C0
:1018C000414693F8693004322046FFF75BFF002859
:1018D000ECD0B4F869002568B4F86BA0B4F86D904A
:1018E000B4F86F80B4F87170B4F87360C0B207F0E8
:1018F000CFFD4FF0605107F023FE294607F020FE90
:101900005FFA8AFA6065504607F0C2FD4FF06051F9
:1019100007F016FE294607F013FE5FFA89F9A06565
:10192000484607F0B5FD4FF0605107F009FE294623
:1019300007F006FE5FFA88F86568E065404607F044
:10194000A7FD4FF0605107F0FBFD294607F0F8FDB9
:10195000FFB2A064384607F09BFD4FF0605107F0DE
:10196000EFFD294607F0ECFDF6B22065304607F0A2
:101970008FFD4FF0605107F0E3FD294607F0E0FDD1
:101980000123E064237483E7013B012B8ED8D4F854
:10199000CC3013B3DE68731E632B1ED8B6B200279B
:1019A0003A46B9461FFA87FA5346991DB14264D8A0
:1019B000E11891F865005A280DD191F86610A52913
:1019C00009D108EB0A05E978AA7802EB012292B264
:1019D0003B2A04D801220137E4E76426DFE7063218
:1019E000642AF7D813449E42F4D369792B79A4F87A
:1019F000609003EB01231FFA82FB9BB25A462946F3
:101A00002046FFF7BFFEA4F86090034610B9E269D4
:101A10000132E261AA79912ADCD1D5F812206265FF
:101A2000D5F81620A265D5F81A20E265D5F81E2053
:101A30002265D5F82220A264D5F82620E264D5F8E4
:101A40003620A263D5F83A202263D5F83E2062639F
:101A5000002B14BF012202222274A269A4F812A052
:101A60000132A4F814B0A261019302F057FE019B69
:101A70006062002B3FF41AAF10E7002A7FF416AF24
:101A8000236A0133236211E70055550000003443F7
:101A9000002282604FF08C4202604FF08B42426124
:101AA000084A8261084A42604FF08342C2604FF4A4
:101AB0007A7140F6B832C0E9071242620222C0E9E8
:101AC0000A227047002099450000904110B5084A4D
:101AD000C26000210022C0E90422C0E9092201609D
:101AE000416081608261C1610162828510BD00BF79
:101AF00000007A44826B8A4208BFC36B10B5046C45
:101B00000CBF013300239C42C36308DCC46322B9C9
:101B1000012380F83430816310BD0223F9E70323E9
:101B2000F7E710B5D0F850110446D0F8540107F08B
:101B3000FDFB07F0CBFE03B2B3F5805F06DDA3F536
:101B400000531BB2A06E1844A06610BD13F5805F51
:101B5000F8DA03F50053F4E738B50E4D2B78042B73
:101B600098BF01330446806E98BF2B7007F094FC39
:101B7000094907F0E5FC094907F0E2FCD4F85C11DB
:101B800007F0D4FB2B78C4F85801022B98BFC4F897
:101B90005C0138BDB8000020DB0F493A8EE3A83F56
:101BA00040F6B833A0F86C3006291BD8DFE801F006
:101BB000040D141B1B2227004FF48043A0F8703043
:101BC00040F6D863A0F86E30704743F2C823A0F8FF
:101BD000703042F22833F5E70B4BC36643F2C8235B
:101BE000A0F87030704741F28833A0F870304FF49D
:101BF0009673E7E7054BC36647F23053F0E7044BB3
:101C0000C36642F21073EBE7E80328235000040197
:101C1000E803B80B2DE9F84F0DF1280A99465AF858
:101C2000043B0360044600254FF07E5300268B469C
:101C300036498362C1620362036345608561456220
:101C40008560C0E90E6680F8346004F1B80814209D
:101C5000C4F89830C4F89C10C4F89030C4F8A03090
:101C600020646567C4F88850C4F89450A567C4E937
:101C70001266C4E91466C4E91A6684F844B0A6651D
:101C8000A4F870604046C4F8AC2004F1E807A4F85A
:101C9000B460FFF71BFF3846FFF718FF04F58C70A0
:101CA000FFF714FF1A4BC4F848311A4BC4F84C51D3
:101CB000C4F85851C4F85C51C4F86051C4F8645178
:101CC000C4F86851C4E95466C4F8743159462046D2
:101CD000FFF766FF424617AD534603CBAB42106099
:101CE00051609A4602F10802F6D13A4623AE2B46DD
:101CF00003CBB342106051601D4602F10802F6D1D9
:101D000084F845902046BDE8F88F00BF00002042CF
:101D100062BE3C39F0FCA23B2DE9F0470DF12008F2
:101D2000044600259A4658F8043B036045608561E7
:101D300000264FF07E50304BE362894604F1B8072D
:101D400014212164C4F89C30A06220622063C4F88E
:101D50009800C4F89000C4F8A000C4E90E66C4E975
:101D60001266C4E91466C4E91A666562A56084F85F
:101D7000346084F84490A665A4F870606567C4F880
:101D80008850C4F89450A5673846C4F8AC20A4F82D
:101D9000B460FFF79BFE04F1E800FFF797FE04F53F
:101DA0008C70FFF793FE154BC4F84831144BC4F800
:101DB0007431C4E95466C4F84C51C4F85851C4F89D
:101DC0005C51C4F86051C4F86451C4F86851494684
:101DD0002046FFF7E5FE3A4615AB454603CD9D424A
:101DE00010605160A84602F10802F6D184F845A0BF
:101DF0002046BDE8F08700BF0000204262BE3C39AB
:101E0000F0FCA23B10F5805F03DC00F5005000B24F
:101E10007047B0F5805FFBDDA0F50050F7E784B0B8
:101E20008842CDE90010B4BF01AB6B4649421A6845
:101E300003919142C8BF03AB186804B0704700001B
:101E40002DE9F84307686FF400731F4401EBC708DE
:101E50000D4698F8053098F8041003EB012319B2E9
:101E6000C16504461646FFF745FE15F8373098F869
:101E7000010000EB032000B207F00EFBC4F8540190
:101E800098F80620C4F8A4200023462AC8BFC4E955
:101E90001533236694F84430032B81464CD1D4F893
:101EA000501107F043FA07F011FD00B2FFF7AAFF47
:101EB00007F0F2FA4C4907F0F7FB4FF0645107F0D6
:101EC0003FFB4A4907F03CFB07F000FD0546D4F80C
:101ED000AC30E564022B37D1606D054313D1D4F8E3
:101EE000508101232366404607F0F0FC606607F04E
:101EF000D3FA414607F01AFA3D4920F0004007F0B6
:101F0000BDFC00B1A5642046FFF70BFE2046FFF79D
:101F100023FED4F85431A06CB4F97010C4F85031D9
:101F2000FFF77DFFA064001206F8170006EB4706D6
:101F3000A36C7370BDE8F88398F8020098F803501A
:101F400005EB00252DB2C2E7012B34D14946D4F868
:101F50004C0107F0EBF907F0B9FC00B2FFF752FFB4
:101F60008046B4F96E0007F097FA0546404607F040
:101F700093FA2A46014604F1E800FEF7D7FAB4F9CD
:101F80006E5007F0A3FC2946FFF749FF0546606540
:101F9000B4F9700007F080FA8046E06C281A07F068
:101FA0007BFA4246014604F1B800FEF7BFFA07F09B
:101FB0008DFCA064A7E7002BA5D1B4F9700007F051
:101FC0006BFA8046606D401B07F066FA4246014698
:101FD00004F1B800FEF7AAFA0546A06D07F05CFA16
:101FE000294607F0A5F9E2E76F12833A0000704234
:101FF0000000484238B50C460546114620461A46B0
:1020000001F0FEFA6422002101F02BFB01F00BFB32
:10201000C5F8C840C5F8D44038BD0000D0F8C800A5
:1020200018B10249062201F0CFBE7047109D00088A
:10203000F8B5036B0446002B72D0186800286FD0E7
:10204000002204F1400104F079FB0128606303D110
:10205000A07102F063FBA06094F8413094F8402036
:1020600094F8427094F843C094F8446094F8451092
:102070001A433A434CEA020232430A4350D07801F1
:1020800040EAD300C0F30A00A0F58063B4F84050E2
:10209000E381B302C5F30A0543EA8C03A5F5806228
:1020A00043EA9713A5F57E75102DC3F30A03A0F537
:1020B0007E70A28198BF0025A3F58062228298BF1E
:1020C000A581CA011028A3F57E7342EA560298BF83
:1020D0000020C2F30A0298BFE081102B98BF0023B2
:1020E000A2F58066A2F57E7298BF2382102A98BF5F
:1020F0000023668298BF6382A38AE3838B092375DA
:10210000C1F301136375B4F846302384B4F8483042
:102110006384B4F84A30A384B4F84E305BBAE384E5
:10212000F8BD0000F8B583793A4C0546002B37D04E
:1021300002F0F4FAAB68C01A632831D8AB8AB3F561
:10214000817F29D1B5F910600123304684F86531CB
:1021500007F0A2F920F000472F49384607F0A2FB0C
:102160000546002851D12C49384607F09BFB003822
:1021700018BF012084F8705184F86E0135B1002E2B
:10218000B4BF01234FF0FF3384F87131002384F88A
:102190006F0184F866310EE040F2023293420BD0B8
:1021A00000234FF4807284F8653184F86631A4F816
:1021B0006E2184F87031F8BDB5F9107001263846EB
:1021C00084F8656107F068F94FF4807320F00045EA
:1021D0001149A4F86E312846002384F8703107F0C5
:1021E00061FB002803460C4918BF3346284684F893
:1021F000663107F057FB0028DDD0002FB4BF012364
:102200004FF0FF3384F87231D5E794F86F5185F0C1
:102210000105A8E71410002000000C422DE9F74F3B
:10222000614C0546236AB0F912000093584307F049
:1022300033F95E4907F038FA07F048FBB5F90C604E
:1022400095F806A0636AB5F91090B5F90E80AC8ACE
:10225000019307467642BAF1000F09D002F05EFA08
:10226000AB68C31A632B8CBF4FF0000A4FF0010A12
:1022700040F20312944202D04D48FEF74FFAB5F8EF
:1022800014B04C4C40F203318B450ED1012384F83D
:10229000203000231A4619462046FEF7FDF928464D
:1022A00003B0BDE8F04FFFF73DBF40F201318B4571
:1022B0002BD1082384F82030009B09FB03F007F0A2
:1022C000EBF83A4907F0F0F907F000FB002302466B
:1022D00039462046FEF7E0F9404607F0DDF84FF0BA
:1022E0007F5107F02DF907F0F1FA0746304607F065
:1022F000D3F84FF07F5107F023F907F0E7FA3A4699
:1023000001462046FEF7B6F9C9E7019BC9F1000076
:10231000584307F0C1F8254907F0C6F907F0D6FA87
:1023200040F201118B4506D1002684F82060034657
:102330000022394626E040F203118B450DD10322DD
:10234000B5F9101084F8202053463A4604F12400D1
:10235000FEF7EAF900221146D3E740F202239B453B
:1023600007D1042384F82030002312481A46194666
:1023700093E7BBF5817F0BD1022384F82030002343
:102380001A4619462046FEF787F942463146B8E715
:1023900040F202339B45EFD040F201239B45E0D150
:1023A000072384F82030C2E7781500200000254478
:1023B0003810002014100020FFF730BF38B50C464D
:1023C0000546114620461A4601F01AF964220021FA
:1023D00001F047F9EC632C6338BD08B502F096F9BB
:1023E00002F016FD04F0ECFE012813D04FF050036C
:1023F00083F31188BFF36F8FBFF34F8F04F06EFC30
:1024000028B14FF0E0234FF08052C3F8042D002391
:1024100083F3118808BD000030B595B0102200216B
:102420000AA807F0FDFA1422002103A807F0F8FA21
:102430000024264B01941A6C42F080521A641B6CE3
:1024400003F080530193019B214B02941A6842F4DC
:1024500080421A601B6803F4804302930122029BAE
:102460004FF48033CDE9082302254FF48003CDE9F2
:102470000E5319214FF4A873CDE9101308A80723B0
:102480001393129502F054FE0F23CDE903354FF458
:10249000A0504FF48053CDE90603052103A805940D
:1024A00003F01CF803F0CEF84FF47A73B0FBF3F0AE
:1024B00002F08EFC042002F09FFC224621464FF0E1
:1024C000FF3002F045FC15B030BD00BF00380240BF
:1024D0000070004010B542608360029A064BC360F2
:1024E000C26100230022C0E90433C0E9093301605E
:1024F00083610262838510BD00007A4410B53022EA
:1025000004460021953007F08BFA0023C4E94E33CE
:10251000C4E95033C4E95233C4E95433C4E95633EF
:10252000C4E95833A4F86831204610BD10B5002224
:1025300004466421012003F0C9FF00232060C4E9A0
:1025400002332371204610BD73B5102204460021CA
:1025500007F066FA424B23634FF480730025002690
:102560002366A4F864303F4B2661C4E90566C4E9DC
:102570000D66C4E91266C4E91566C4E91A66E66127
:102580006562A562E562E66325646564A4F850604F
:10259000E66526676567A567E567C4F88050C4F8F7
:1025A0008450C4F88850C4F88C50C4F89050C4F8D3
:1025B0009450C4F8B8302C4BC4F8BC302B4BC4F842
:1025C000C0302B4BC4F8C4302A462B462949C4F8E6
:1025D0009850C4F89C50C4F8A050C4F8A450C4F853
:1025E000A850C4F8AC50C4F8B050C4F8B45000952A
:1025F00004F1C800FFF76EFF2B462A461E490095DE
:1026000004F1F800FFF766FF2B462A46009529469D
:1026100004F59470FFF75EFF184B194AC4F858315F
:102620004FF40763C4E95A23164B84F85C612046D3
:10263000C4E95E66C4E96066C4E96466C4F86051D2
:10264000C4F86461C4F87031A4F87461C4F8886196
:1026500084F88C61C4F8986184F89C6102B070BD04
:1026600000007A44000080BF000080BECDCCCC3E8C
:10267000ACC5A7360AD7A33DCDCC4C3D00002040C9
:102680000000C409000101002DE9F04FB3B000259E
:102690004FF081474FF07F5A53462A4639460095FE
:1026A00026A826AEFFF716FF0FCE01AC0FC40FCE43
:1026B0000FC496E80F00DFF8E48284E80F0040F2D0
:1026C000012B00221146CDF800B002234046FFF74F
:1026D00023FB26AE53462A463946009526A8FFF727
:1026E000F9FE0FCE01AC0FC40FCE0FC496E80F0059
:1026F0004FF4017984E80F0000221146CDF80090D4
:10270000022308F5BC70FFF707FB26AE53462A46A6
:102710003946009526A8FFF7DDFE0FCE01AC0FC4A9
:102720000FCE0FC496E80F0084E80F0040F2052397
:10273000009300220323062108F53C70FFF7ECFA12
:1027400026AE53462A463946009526A8FFF7C2FE14
:102750000FCE01AC0FC40FCE0FC496E80F00DFF808
:10276000408284E80F0000231A461946CDF800B0D5
:102770004046FFF7D1FA26AE53462A463946009521
:1027800026A8FFF7A7FE0FCE01AC0FC40FCE0FC4D3
:1027900096E80F0084E80F0040F202230093002324
:1027A0001A46194608F5BC70FFF7B6FA26AE53462E
:1027B0002A463946009526A8FFF78CFE0FCE01ACBD
:1027C0000FC40FCE0FC496E80F0084E80F0040F24C
:1027D0000323009300231A46194608F53C70FFF7BF
:1027E0009BFA26AE53462A463946009526A8FFF79F
:1027F00071FE0FCE01AC0FC40FCE0FC496E80F00D0
:1028000084E80F0000231A461946CDF8009008F519
:102810008D60FFF781FA2A46624B6349009526A82E
:10282000FFF758FE1AAC2A46604900954FF08243E4
:102830001AA8FFF74FFE0FCC0DAE0FC60FCC0FC678
:1028400094E80F0086E80F0026AC0FCC01AE0FC64F
:102850000FCC0FC694E80F0086E80F004FF4027308
:10286000009301231A46052108F5BC60FFF7D2F951
:102870004F4B50481D61032140F20252C3E9001240
:102880004D4A9A6300244D4A5D61C3E902449D614B
:10289000DD61DA63FFF732FE49484A4EFFF72EFE4C
:1028A0004948FFF743FE4948FFF740FE4848FFF715
:1028B0003DFE4848FFF73AFE4748FFF737FE4748D6
:1028C000FFF734FE464B4748474A1F60C3E90244BE
:1028D000C3E90644C3E90844C3E90A445A601C74C6
:1028E0005C829C825D659D65DD6501236427838034
:1028F0004FF07E5383628471846080F82C400463BF
:102900003A462146403007F08BF83A462146304699
:1029100007F086F83A462146F01907F081F8334B64
:10292000C6F8C840C6E934441C70314E3148FFF740
:102930000BFE4FF48073C6E9033303F10073A3F178
:102940009713C6F808313A462146C6E90744346071
:10295000B560A6F8824006F5867007F061F821465A
:10296000962206F5B87007F05BF83A46214606F263
:10297000062007F055F806F26A233A462146184623
:1029800007F04EF8C6E9B644C6E9B400C6E9BA4451
:1029900086F8E04233B0BDE8F08F00BFA802002007
:1029A000BC0800200000A040000048429A99993FCE
:1029B000BC000020FC000020000020419A99193F33
:1029C00010070020A81500207417002028180020E8
:1029D000DC18002090190020441A0020F81A00206A
:1029E000B4110020801600200000FA4424170020B3
:1029F00088120020141000202DE9F84FD0E900982B
:102A000093466FF06043A8EB0902B3EBA20F0746B1
:102A10008A464FEAA20402D11D4805F064F8012C51
:102A2000224638BF0122A418A1EB09052BD264B3BA
:102A30009C4228BF1C46A00005F041F80646DBF882
:102A400000307351002D04DD2A464946304606F019
:102A5000CDFFA8EB0A080435B8F1000F354404DDBA
:102A600042465146284606F0B3FF4544B9F1000FEF
:102A700002D0484605F021F806EB8404C7E900655A
:102A8000BC60BDE8F88F1C46D5E72646D7E700BFF7
:102A9000179D000810B50A46D0E90114A14204D0E0
:102AA000126841F8042B416010BDFFF7A5FFFBE75A
:102AB00000B589B0FFF7B0FC042002F09DF9704C1E
:102AC000704B4FF0E021012565601A686E4BB2FB38
:102AD000F3F2226008694FF47A76724340F0020004
:102AE00008614A610A692A430A6101F0F5FD6749F4
:102AF0006748FDF7C3FB67496748FDF7BFFB3346EF
:102B0000664A6748002100F0CDFB00F04BFC654AA7
:102B10006549664800954FF46123FEF70DFE644B4E
:102B2000644A65496548664DFFF748FC654A664951
:102B300066484FF41653FFF75DFA654A65496648E3
:102B40004FF4E12301F046F96448FEF7A1FF0026A7
:102B500005A902A80595CDE902660496FFF79AFF3C
:102B600005F5BC7305A902A80593FFF793FF05F5CA
:102B70003C7305A902A80593FFF78CFF05F58D634B
:102B800005A902A805F5BC650593FFF783FF059528
:102B900005A9534D02A8FFF77DFF05A902A80595D9
:102BA000FFF778FF05F5BC7305A902A8059305F5A5
:102BB0003C75FFF76FFF05A902A80595FFF76AFFAF
:102BC000DDE90235ED1ACDE90566079651D0454B92
:102BD0009D4201D904F084FF284604F070FF0346AB
:102BE000DDE902121D4491420795CDE90533A2EBC0
:102BF000010504D018462A4606F0F8FE03463A4876
:102C00002B4405A90693FDF7E3FC059808B104F0F1
:102C100054FF04F0D5FA01282DD06368B3F57A7F0C
:102C200005D84FF47A70B0FBF3F004F0A5F96268B0
:102C30004FF47A73B3FBF2F35343C3F57A7322680C
:102C40004FF0E0205343456984694FF47A7253434F
:102C500000228169A142FCD0224428BF5219521A95
:102C600093420BD82148FEF799FC214800F004FB61
:102C7000FEE72B46B4E74FF47A73E0E70C46E8E74B
:102C8000040000200C00002040420F0000640040BF
:102C9000FC000020006800401007002000040040F5
:102CA0002C1700200044004028180020B4110020F8
:102CB000A086010000480040DC180020801600209B
:102CC000BC08002000500040441A0020A815002035
:102CD00000140140F81A00203C2000207815002044
:102CE000A8020020FCFFFF7F14100020BC00002081
:102CF00024170020FFF7C8BC0C4B1A68002142F0D3
:102D000001021A6099601A6822F0847222F48032FB
:102D10001A60074A5A601A6822F480221A60D96041
:102D2000044B4FF000629A60704700BF00380240C9
:102D30001030002400ED00E013B504F0B3FC224B8A
:102D4000019301230093214921480023802203F0AD
:102D500049FE204B0193032300931F491F48002382
:102D6000802203F03FFE02241D4B01931D49009475
:102D700000234FF480721C4803F034FE1B4B1C49A7
:102D80001C48CDE900434FF48072002303F02AFE73
:102D9000194B1A491A48CDE900438022002303F059
:102DA00021FE184B18491948CDE900434FF48072B1
:102DB000002303F017FE164B186803F0E7FE02B07D
:102DC000BDE8104004F08EBCA8000020319D000832
:102DD0007D2F0008A4000020399D0008592F00080D
:102DE000AC000020449D0008152E00089C00002027
:102DF000549D0008792E0008A0000020649D000862
:102E00003D300008B4000020709D0008952F000898
:102E1000B00000202DE9F341114D124F124E03F086
:102E200057FF00240190281910493A4604F5BC7454
:102E3000FFF706F8B4F58D6FF5D1DFF83480002484
:102E400030190C49424604F5BC74FEF7F9FFB4F59D
:102E5000EB6FF5D1022101A804F046F8DFE700BFCF
:102E6000A802002081010020BC080020FD000020F5
:102E7000950700201107002080B5314C314EEEB08F
:102E800004F10C0703F024FF2F4D6D904FF4D07226
:102E900039466846689506F09BFD94E80E0029487F
:102EA000FEF716FB336804EBC3038D336A93F36BB1
:102EB00069934FF4D072B36B68933946684606F055
:102EC00087FD94E80E001F48FEF7AEFB03211D4866
:102ED000FEF758FB1D4A536C591C51640322B3FB87
:102EE000F2F202EB42029B1A012B06D0022B16D003
:102EF00001216DA803F0F8FFC4E70823A5F138020B
:102F000040F2FF11A5F1C500FDF76EFA104A082343
:102F100040F2FF11A2F18D00FDF766FAE8E7082301
:102F2000A5F140024FF40071A5F1C500FDF75CFA70
:102F3000084A08234FF40071A2F18500ECE700BFB6
:102F4000FC000020BC000020C10100202C17002044
:102F50009D0700209507002008B5064D064C284621
:102F6000FFF766F82046FEF73DFC052004F004F864
:102F7000F5E700BF80160020B411002008B5044C0E
:102F80002046FFF74BF8642003F0F6FFF8E700BF98
:102F9000A81500202DE9F04186B003F099FEDFF876
:102FA00080800590002701F0B9FB642201461D488E
:102FB000FEF7DCFB00282DD01A48FEF7E1FB414666
:102FC00006F0BEFA04461748FEF7CCFB414606F071
:102FD000B7FA0546144B9E8A40F20321731A5E42EB
:102FE0005E41124B1B69C3B1D86C06F055FA03461B
:102FF0000F4A928B0AB90F4A928A009231460E48C4
:1030000002950194002200F050FF0A2105A803F068
:103010006BFFC8E73D463C46DCE73B46E8E700BFC0
:1030200035FA8E3CB41100208016002014100020C8
:10303000E8210020082200203C2000202DE98048C3
:10304000DFF8FC817F4E91B04FF00009DFF8F8B156
:10305000404601F064F85846FFF7AEF901F05EFB18
:10306000BBF814A040F20327AAEB07035F42044613
:1030700040465F4100F0D4FE10220546002107A81B
:1030800006F0CEFC9BF80630069433B1DBF808302E
:10309000E31A632B8CBF002301236C498DF81C308D
:1030A0008DF81D70042331F9022B323292B2642A5A
:1030B00070D8013B13F0FF03F5D1012364222146B0
:1030C00030468DF81E30FEF751FB21468DF81F006B
:1030D000404600F09BFE8DF82000AB788DF8213043
:1030E0003046FEF73FFB09906B6859490A9306AAE0
:1030F00001A801F0B9F89DF804B0102200210CA835
:1031000006F08EFC8DF831700B948DF830B0AB78F2
:103110008DF832303046FEF733FB4E4F0D90BB69D1
:103120000E93AB684C490F930BAA03A801F074F9F6
:10313000BBF1000F30D09DF80C306BB3474C062329
:1031400084F8203000231A4619462046FDF7A4FAD9
:10315000002211462046FDF78DFA0023A4F86431C1
:1031600084F8663184F86E3184F87031029BE3672D
:10317000049BC4F88030059BFB613948FEF730F8AA
:103180003848FDF739FE3848FDF762FB052003F0AB
:10319000F3FE5BE7002391E740F203239A45ECD16D
:1031A0002E4C042384F82030002300251A461946AB
:1031B0002046FDF771FAA4F86451304684F8665150
:1031C00084F86E5184F87051FEF7CAFA2369E067FB
:1031D000C4F89C90C4F8B4902BB1D3F85421A267E2
:1031E000C3F84C215D65D4F8BCA0BD691F490095AA
:1031F000504606F09BF80146284606F053FB00288F
:10320000BBD0D4F8C0B01949584606F091F8014631
:10321000284606F03DFB0028AFD05946284606F068
:103220004BFB58B9AB466C465946504606F044FB3A
:103230000F4B002818BF1C4623689DE70D4CF3E791
:103240003C200020B4110020801600208C160020A5
:1032500008220020BC000020E821002014100020DB
:10326000881000203810002074110020CDCCCC3DF7
:10327000D0100020D410002007B5074B0193012384
:103280000093064906480023802203F0ABFB03B0FD
:103290005DF804EB03F0D4BCB0000020789D00087A
:1032A000392D0008F8B504462D48B0FBF3F00E4662
:1032B000154606F0EDF82B49074606F0F3FA28B359
:1032C0002849384606F0F0F94FF07E5106F02EF806
:1032D00006F022FB41F28733E06063610023012E98
:1032E000A5602361A3611FD0022E22D01EB904F174
:1032F000080002F0A9FB63692360B5F1804F1DD17E
:10330000194A04F1080353602046F8BD5323E360D3
:103310001649384606F0C8F94FF07E5106F006F817
:1033200006F0FAFA6061D9E704F1080002F0A6FBA2
:10333000E1E704F1080002F0BBFBDCE70C4B9D4227
:1033400008D003F580639D42DED1074A04F10803EB
:10335000D360D9E7044A04F108039360D4E700BFBF
:1033600000BD010500409C45AC1B00200000A842A8
:1033700000040040024B586808B102F061BA70477F
:10338000AC1B0020024B986808B102F059BA704794
:10339000AC1B0020024BD86808B102F051BA70474C
:1033A000AC1B002010B500F1080486B04FF4805328
:1033B00002A92046029302F086F9002369462046BE
:1033C000CDE9003302F084FC204602F071F906B02A
:1033D00010BD000073B5044611482668056C06F15F
:1033E000404301229B0A02FA03F10D430564006C7D
:1033F0001C33014058B20B4B01919E42019908BF0A
:103400000022002101F0A4FC206800F14040800A65
:103410001C3040B202B0BDE8704001F0CBBC00BF30
:103420000038024000080040024A536C01335364E4
:10343000704700BF2C17002037B50168094C0023E6
:10344000019301F14043256C01229B0A02FA03F328
:103450002B432364236C890A8A401A400192019B02
:1034600003B030BD0038024013B504460D4923684F
:10347000086C9B0A01229A4010430864096C0A40B8
:103480000192019A1C33002258B2114601F060FCEF
:103490002068800A1C3040B202B0BDE8104001F044
:1034A00089BC00BF0038024070B502680E4B9A42DA
:1034B00086B0044615D1067E012E12D1002569463C
:1034C000CDE9005502F004FC02A9227E2046CDE998
:1034D0000256CDE9045502F03FFB217E204602F062
:1034E000D1FB06B070BD00BF000800400368344A3D
:1034F000934203D1334B3D229A607047324A934244
:1035000003D1304B4FF47462F6E7304A934203D153
:103510002C4B4FF47412EFE72D4A934203D1294B01
:103520004FF07462E8E72B4A934203D1254B3D22CA
:10353000DA607047284A934203D1224B4FF47462F9
:10354000F6E7264A934203D11E4B4FF47412EFE77D
:10355000234A934203D11B4B4FF07462E8E7214AA0
:103560009342A2F1100202D13D23936070471E499D
:103570008B4202D14FF47463F7E71C498B4202D1AE
:103580004FF47413F1E71A4A9342A2F1580202D1A0
:103590004FF07463E9E717498B4202D13D23D360B2
:1035A000704715498B4202D14FF47463F7E7134912
:1035B0008B420CBF4FF474134FF07463EFE700BFFE
:1035C00010600240006002402860024040600240FB
:1035D000586002407060024088600240A060024073
:1035E000B860024010640240286402404064024017
:1035F000586402407064024088640240A064024043
:1036000010B50023C0E91D120C22C0E91F33C0E928
:1036100022230446C0F88430C0F89030743002F0A1
:10362000DFFC204610BD10B50446D0F8A4000368A6
:103630001A6822F001021A60626F04329A60002256
:10364000DA60FFF753FFD4F8A4301A68136843F028
:1036500010031360626F536943F080035361204687
:1036600010BD37B50446D0F8A80003681D6825F0E2
:1036700001051D60656F04359D605A6009B904F14C
:103680001001D960FFF732FFD4F8A8301A68136828
:1036900043F001031360636F5A6942F040025A61BC
:1036A000002201921A6801925A680192019ADA681E
:1036B000204642F01002DA6003B030BD2DE9F04739
:1036C0000268C14B9A429CB004466ED10025BF4EA1
:1036D0000095736CBE4843F010037364736C03F081
:1036E00010030093009B0195336B43F00103336398
:1036F000336B03F001030193019B4FF4C068022375
:10370000CDE912834FF00109032312A9CDE91493E7
:103710000723169301F026FC0295336B43F48003D4
:103720003363336BAB4E03F480030293029BAA4BCB
:103730004FF000684FF480673046C6E90038C6E9AC
:103740000255C6E90475C6E90655C6E9085501F0F3
:1037500079FB6663A14BB463A14EC6E900383046DD
:103760004023C6E90235C6E90475C6E90655C6E92F
:10377000085501F067FB2A46062126632520B4631D
:1037800001F0E6FA252001F015FB2A4606213A2031
:1037900001F0DEFA3A2001F00DFB46202A46062110
:1037A00001F0D6FA462001F005FB22688D4B9A42C3
:1037B0006ED10025854E0395336C854843F4003364
:1037C0003364336C03F400330393039B0495336B2E
:1037D00043F001033363336B03F0010304934FF0B1
:1037E0000C0C049B0223CDE912C34FF0010E0323FE
:1037F000CDE914E312A90723169301F0B3FB059555
:10380000336B43F400133363336B774E03F40013CD
:103810000593059B754B4FF000684FF48067304669
:10382000C6E90038C6E90255C6E90475C6E9065579
:10383000C6E9085501F006FB66636D4BB4636D4E37
:10384000C6E9003830464023C6E90235C6E90475AA
:10385000C6E90655C6E9085501F0F4FA2A460621DC
:1038600026632620B46301F073FA262001F0A2FA41
:103870002A460621102001F06BFA102001F09AFA76
:1038800011202A46062101F063FA112001F092FA74
:103890002268594B9A426DD100254C4E0695336CE7
:1038A00043F480233364336C03F480230693069B34
:1038B0000795336B43F004033363336B03F0040366
:1038C0000793079B4FF440600223CDE912030127C1
:1038D000032312A9CDE9147348480723169301F076
:1038E00041FB0895336B43F400133363336B444E51
:1038F00003F400130893089B424B4FF000684FF409
:1039000080673046C6E90038C6E90255C6E9047545
:10391000C6E90655C6E9085501F094FA66633A4BC4
:10392000B4633A4EC6E9003830464023C6E9023552
:10393000C6E90475C6E90655C6E9085501F082FADC
:103940002A46062126632720B46301F001FA2720C6
:1039500001F030FA2A4606210C2001F0F9F90C207A
:1039600001F028FA0E202A46062101F0F1F90E2076
:1039700001F020FA2268264B9A4240F095800025FB
:10398000124E0995336C124843F400233364336CB0
:1039900003F400230993099B0A95336B43F0010359
:1039A0003363336B03F001030A930A9B0222032360
:1039B000CDE912320122CDE9142312A9082316936E
:1039C00001F0D0FA0B9525E00010014000380240CC
:1039D00000000240BC1B002040640240B86402406A
:1039E000FC1D0020004400401C1C00208860024098
:1039F000A06002405C1E0020004800400008024019
:103A00007C1C00202860024058600240BC1E002040
:103A1000004C0040336B43F400133363336BA14E0F
:103A200003F400130B930B9B9F4B4FF000694FF473
:103A300080684FF440373046C6E90039C6E9025580
:103A4000C6E90485C6E90655C6E9087501F0FAF924
:103A50006663964BB463964EC6E900393046402300
:103A6000C6E90235C6E90485C6E90655C6E9087502
:103A700001F0E8F92A46062126633420B46301F0F8
:103A800067F9342001F096F92A4606210D2001F04D
:103A90005FF90D2001F08EF90F202A46062101F072
:103AA00057F90F2001F086F92268824B9A4240F0C4
:103AB00085800025804E0C95336C804843F480133C
:103AC0003364336C03F480130C930C9B0D95336BB0
:103AD00043F004033363336B03F004030D930D9B36
:103AE0000E95336B43F008033363336B03F0080325
:103AF0000E934FF0030808270E9B16974FF4805340
:103B00004FF0020A4FF0010912A9CDE9123ACDE9AE
:103B1000149801F027FA17A9042369481B97CDE9E7
:103B2000173ACDE9199801F01DFA0F95336B43F45C
:103B300000133363336B634E03F400130F930F9B37
:103B4000614B4FF000684FF480673046C6E900389B
:103B5000C6E90255C6E90475C6E90655C6E9085521
:103B600001F070F96663594BB463594EC6E90038E9
:103B700030464023C6E90235C6E90475C6E9065554
:103B8000C6E9085501F05EF92A460621266335206C
:103B9000B46301F0DDF8352001F00CF92A46062166
:103BA0000B2001F0D5F80B2001F004F92F202A4654
:103BB000062101F0CDF82F2001F0FCF82268454BDA
:103BC0009A426CD100253C4E1095736C3B4843F0F3
:103BD00020037364736C03F020031093109B119502
:103BE000336B43F004033363336B03F0040311932B
:103BF000C022119B0223CDE9122301210323CDE929
:103C0000141312A90823169301F0ACF91795336B1E
:103C100043F480033363336B2F4E03F48003179315
:103C2000179B2E4B4FF020684FF480673046C6E953
:103C30000038C6E90255C6E90475C6E90655C6E965
:103C4000085501F0FFF86663254BB463254EC6E9BD
:103C5000003830464023C6E90235C6E90475C6E996
:103C60000655C6E9085501F0EDF82A4606212663F7
:103C70004720B46301F06CF8472001F09BF82A4616
:103C80000621392001F064F8392001F093F845202D
:103C90002A46062101F05CF8452001F08BF81CB0A3
:103CA000BDE8F087DC1C00204060024070600240EC
:103CB0001C1F002000500040003802400008024055
:103CC000000C02403C1D002010600240B860024021
:103CD0007C1F0020001401409C1D0020286402402D
:103CE000A0640240DC1F0020436F1A6813B5D106A0
:103CF000044628D5DA68D20625D500220192196833
:103D000001915B680193019BD0F8A8301B6859684A
:103D1000C1F16401C160196821F001011960022339
:103D200000F11001006802F0A8FCA060D4F8A8001F
:103D3000FFF7DCFBD4F8A8301B6864225A601A68CD
:103D400042F001021A6004F1740002B0BDE81040B4
:103D500002F008BA10B50446D0F8A400FFF7C6FB7D
:103D6000D4F8A4301A68136823F00103136010BD5F
:103D70000148FFF7B9BF00BF741700200148FFF7E3
:103D8000B3BF00BF281800200148FFF7ADBF00BF38
:103D9000DC1800200148FFF7A7BF00BF90190020E2
:103DA0000148FFF7A1BF00BF441A00200148FFF7F8
:103DB0009BBF00BFF81A0020704700000148FFF7C2
:103DC000C9BF00BF901900204FF6FF7392B2743044
:103DD00002F034B9F8B500240D4601601646A0F88B
:103DE0007C41847444610E22214604301F4605F054
:103DF00017FE55B13A4631462846FFF701FC2146E9
:103E00006422BDE8F840FFF72CBCF8BD0346807C77
:103E100028B15869091AC8298CBF002001207047B1
:103E20000430704710B5034668B1084C0144104691
:103E300099420AD013F8012B4240D2B234F8122032
:103E400082EA1020F4E74FF6FF7010BD849D000851
:103E500070B50D460446A0B1022912D98E1E4FF648
:103E6000FF723146FFF7DEFFA25DC3B29A4208D16E
:103E70002C44C0F3072014F8014C231A584258412F
:103E800070BD0020FCE770B50D46044660B1022904
:103E90000AD98E1E4FF6FF723146FFF7C3FFA055B9
:103EA0002C44000A04F8010C70BD70B50446059D51
:103EB00026680698002E3CD003F0FF46042928BF50
:103EC0000021B6F1FF4F05F0FF4608BF0023B6F111
:103ED000FF4F00F0FF4608BF0025C4F88231B6F15D
:103EE000FF4FBDF81030A4F886314FF0530608BFDD
:103EF0000020002384F87E61C4F88851502604F520
:103F0000BF75A4F8903184F8801184F88121C4F839
:103F10008C011421284684F87F61FFF7B4FF2068E4
:103F200014222946FFF750FFD4F8A8310133C4F812
:103F3000A83170BD38B5B0F87C418C42054603D835
:103F40000023A0F87C3138BD641AA4B27C3022462C
:103F5000014405F04BFDA5F87C41F4E770B504463B
:103F600015460E4679B372B3FF2A0CD90023A0F888
:103F70007C31D0F8A031A2F5807501332E44C0F811
:103F8000A0314FF48075B4F87C312B449BB2B3F56B
:103F9000807F0AD9A3F5807399B22046FFF7CAFF44
:103FA000D4F8A0310133C4F8A031B4F87C3104F165
:103FB0007C002A463146184405F00AFDB4F87C21FD
:103FC0001544A4F87C5170BD38B50378532B2DD11E
:103FD0004378502B2AD18378012B27D8C378012B23
:103FE00024D843681D4603F0FF43B3F1FF4F1DD0B3
:103FF00083681C4603F0FF43B3F1FF4F16D00C4912
:10400000284605F04FFC80B10A49284605F040FCDF
:1040100058B10749204605F045FC30B10549204616
:1040200005F036FC003818BF012038BD0020FCE741
:10403000DB0FC9C0DB0FC9402DE9FF41044600F189
:104040007C0800F18407B4F87C31012B64D900228C
:1040500091B2481C98420D4654D2254495F87C50A4
:10406000532D04D1204490F87C0050282DD00132EB
:10407000EEE700234EE06B4642461E46106851684C
:104080001D4603C50832BA422B46F7D1386828606E
:10409000BA88AA803046FFF797FF30B9D4F8A0312C
:1040A0000133C4F8A0310E2128E096E80F00251D49
:1040B00007C52B800123A37400F030FBD4F8A43192
:1040C00060610133C4F8A431EDE711B12046FFF778
:1040D00031FFB4F87C310D2B1ED9D4F8983101335F
:1040E000C4F898310E214046FFF7B2FE0028C2D135
:1040F000D4F89C310133C4F89C3101212046FFF7EC
:1041000019FFA0E7234493F87B30532BB1D184F8F7
:104110007C300123A4F87C3104B0BDE8F08138B5CF
:104120000368044623B300F11805236800221868C9
:10413000294602F003FB01281AD12368DA68642AB1
:1041400013D9D4F8A0310133C4F8A0316422D4F8D3
:10415000943113442046C4F8943192B22946FFF7B3
:10416000FDFE2046FFF768FFDFE7002ADDD0EEE71F
:1041700038BD000070B50E4E0E4D04463146204647
:1041800005F09AFB60B90C4E0A4D3146204605F009
:104190007FFB58B12046294605F0CAF80446F4E7EB
:1041A0002046294605F0C2F80446E7E7204670BDE0
:1041B000000034430000B443000034C338B5044663
:1041C000154600220846227003B1A38200F0FF4387
:1041D000B3F1FF4F03D0FFF7CDFF6060A060E56053
:1041E00038BD000038B50B790C464BB38B794BB317
:1041F000CB794BB30B7A4BB3CD6805F0FF43B3F1EA
:10420000FF4F25D01449284605F038FB00BB134961
:10421000284605F051FBD8B9246904F0FF43B3F1F7
:10422000FF4F17D00E49204605F028FB90B90D49E5
:10423000204605F041FB002814BF0720002038BDB0
:104240000220FCE70320FAE70420F8E70520F6E760
:104250000620F4E70720F2E7000034C400003444ED
:10426000DB0FC9C0DB0FC9402DE9F04792F805808C
:10427000D2F80C90166891F800A005460C46174637
:10428000B8F1000F0ED15346324649462046FFF79B
:1042900095FF84F80180A5F80080A3686B6028462C
:1042A000BDE8F08711462046FFF79CFF8046BAF133
:1042B000000F21D163783BB920B97B7A012B0CD058
:1042C0004FF00A08A4F814800023324649462046DD
:1042D000FFF774FF00232B80DFE723704846FFF7CA
:1042E00049FFC4E903666060A060A4F8148040F24E
:1042F00001132B806860D2E708B10346E5E7D4F8E4
:1043000004A04846514605F011F8FFF733FF244951
:1043100020F0004005F0D0FA40B10123637032462E
:10432000082349462046FFF749FFB4E77B7A012B73
:104330000FD02369F31AC82B08D94846FFF71AFF94
:104340000923A060E660A3820123D2E7E66001238F
:10435000C1E7A38A13492661092B08BFA082E66042
:10436000386905F0EDF8FFF705FF514604F0DEFF70
:10437000FFF700FF0C49064605F080FA68B90B49C3
:10438000304605F099FA00B1084E3146504604F027
:10439000CFFFFFF7EFFEA060D6E7034EF5E700BFC3
:1043A0000000E041E12E65420000C8C10000C841A4
:1043B000002370B503708B68CC6803F0FF42B2F144
:1043C000FF4F18BFC36004F0FF43B3F1FF4F054632
:1043D0000E4616D00D49204605F064FA88B14FF01C
:1043E0007C51204605F054FA58B10949204605F0A1
:1043F00045FA48B90749204605F05EFA00B1054C78
:104400002C6133686B6170BD014CF9E73333B3BE87
:10441000000080BECDCCCC3E2DE9F84F5679054644
:104420000C4617466EB94E708E8320461146FFF734
:10443000BFFF2E80E3686B602369AB602846BDE850
:10444000F88F13790BB14B7833B139462046FFF71B
:10445000AFFF00232B80EDE7D2F8088008F0FF4380
:10446000B3F1FF4F12D08349404605F007FA68B90F
:104470008149404605F020FA40B9D7F810B00BF05A
:10448000FF43B3F1FF4F04D10C2300E00B23A383C0
:10449000DBE77A49584605F0F1F90028F4D178496C
:1044A000584605F009FA0028EED1FE6806F0FF43F1
:1044B000B3F1FF4F04D10D23A38300232370C9E779
:1044C0007049304605F0DAF90028F4D14FF07C51FC
:1044D000304605F0F1F981460028ECD1237803BB82
:1044E000012369492370C4F80480A660C4F80C80D5
:1044F000304605F0C3F990B96449304605F0DCF95F
:1045000000B1624E3B682661C4E905330023A383F2
:1045100040F201132B80C5F80480AE608EE75A4E3E
:10452000F0E7D4F804A04046514604F0FFFE584995
:1045300020F0004005F0C0F950B1012363700E2354
:10454000A38339462046FFF733FFA5F8009071E7B3
:10455000BB79D7F80090012B1AD0A369A9EB03030C
:10456000C82B0FD94849C4F80C80304605F086F9AD
:1045700060B94649304605F09FF900B1434E2661C7
:104580000F23A383C4F81490012363E73E4EF6E79C
:10459000A38B4049C4F818900F2B08BFA08358463E
:1045A00004F0CEFF514604F0C1FE3B49064605F03B
:1045B00065F9002856D13949304605F07DF900B13A
:1045C000364E3146504604F0B3FE35490746304674
:1045D00004F0B6FFA16804F0ABFE2B49064605F0D7
:1045E0004DF9002840D12949304605F065F900B160
:1045F000264E6069A9EB0000322828BF322004F063
:1046000047FF284904F09CFF274905F04DF8D4F8EE
:1046100010B080465946304604F088FE08F1004646
:104620003146824605F02AF928B94146504605F040
:1046300043F9D8B146463146584604F079FE12494E
:10464000064605F01BF998B91049304605F034F9D3
:1046500000B10E4E26610123E760C4F814902B8050
:104660006F605AE70C4EACE7074EC2E75646E2E7EA
:10467000054EEFE7000034C300003443DB0FC9C030
:10468000DB0FC9403333B3BE000080BECDCCCC3E7F
:1046900000009041E12E6542000070C100007041B1
:1046A00035FA8E3CC2B8B23F00007A447047000031
:1046B00010B5084B044618684FF47A73B0FBF3F05A
:1046C00000F086FB002221464FF0FF3000F040FB57
:1046D000002010BD0C00002008B50B4B1A6842F4F6
:1046E00000721A601A6842F480621A601A6842F412
:1046F00080721A60032000F019FB0F20FFF7D8FF2B
:10470000FFF7D4FF002008BD003C0240024A1368B6
:1047100001331360704700BF20220020014B18684E
:10472000704700BF202200203C4B4A6930B5D3F8C7
:10473000004244F00104C3F80042D3F8004224F4DC
:104740007C54C3F80042D3F800424D6A44EA052481
:10475000C3F80042D3F81C520120904025EA00051E
:10476000C3F81C52CD69C443002D35D1D3F80C5287
:104770002540C3F80C52CB688D8845EA0345D30029
:1047800003F1804303F5C8430A88C3F840528D689B
:1047900042EA0542C3F844228A69204B8ABBD3F817
:1047A00004222240C3F804220A6972BBD3F81422FF
:1047B0001440C3F814420B6A012B184B02BFD3F804
:1047C0001C221043C3F81C02D3F8002222F001027D
:1047D000C3F80022002030BD012DDDD1D3F80C52EA
:1047E0000543C3F80C520B688D8845EA0345D30096
:1047F00003F1804303F5C8438A89C3F840528D68AA
:10480000C6E7D3F804220243CCE7012A01BF034ADA
:10481000D2F814320343C2F81432CCE700640040EB
:1048200070B50446002800F08F8090F8383003F00F
:10483000FF021BB980F83920FBF758FD022384F8EA
:10484000383023681A6822F002021A601A6842F0AF
:1048500001021A60FFF762FF064623685D6815F0E3
:10486000010557D05A68D1076BD5A269012A1A6889
:104870000CBF42F0800222F080021A60E269012A35
:104880001A680CBF42F0400222F040021A60226A0D
:10489000012A1A680CBF42F0200222F020021A609E
:1048A000626A012A1A680CBF42F0100222F010025C
:1048B0001A60A26A012A1A680CBF42F0080222F0AC
:1048C00008021A60E26A012A1A680CBF42F0040268
:1048D00022F004021A60D4E902210A4321690A4342
:1048E00061690A43616801390A43DA611A6822F092
:1048F00001021A60FFF712FF054623685A68D207C3
:1049000013D4586810F001001BD10123E06384F830
:10491000383009E0FFF702FF801B0A289DD90320E9
:1049200084F8380084F8395070BDFFF7F7FE401B5B
:104930000A28E2D90320002384F8380084F83930AB
:10494000F2E7042384F838300120EDE702682DE90E
:10495000F84393685B0104460F4606D493681D0133
:1049600003D49368D80040F1888094F83930012B43
:1049700000F08880012384F8393094F83830222BF5
:104980000CBF3223122384F838309368590152D473
:10499000936813F0006F14BF0126022602EB061382
:1049A000206BD3F88011D0E9025E01F00101C3F859
:1049B0008011D3F880114FEA061C002D3DD1056807
:1049C0004EEA45550D43C3F88051D3F8845101692F
:1049D000DFF8B480DFF8B49001F00F0125F00F0587
:1049E0000161C3F88451D3F884512943C3F8841179
:1049F00062444169C2F888118169C2F88C11D3F808
:104A0000802142F00102C3F88021FFF787FE0546AE
:104A100023681F499A6846BB31EA020214D194F810
:104A20003830322B0CBF22230123002084F8383089
:104A300084F8390011E00026B0E745EA0E05D0F809
:104A400004E045EACE05BDE77A1CE3D03FB9032078
:104A5000002384F8380084F83930BDE8F883FFF784
:104A60005DFE401BB842D3D9F1E7012E02D139EAED
:104A70000202D3E738EA0202D0E7042384F8383090
:104A80000120EAE70220E8E7000003100003000825
:104A90000300000410B50346084693F83820012AA5
:104AA000D1B201D0122922D193F83920012A1ED087
:104AB000012283F8392093F83820122A0CBF3222C1
:104AC000222283F8382000211A68D963546944F4FB
:104AD0000F44546183F83910536918B943F0020345
:104AE000536110BD43F0100353610846F9E70220FB
:104AF000F7E770470268436B70B502EB01140EB222
:104B0000D4F8B05105F004059D60002D4FD1D4F8C4
:104B1000B0516D0D1D60D4F8B051D4F8B441196294
:104B200004F00F041C6102EB061405F00205D4F832
:104B3000B441DD60C4F30724DC6102EB0114D4F856
:104B4000B8511D75D4F8B8512D0A5D75D4F8B85117
:104B50002D0C9D75D4F8B8512D0EDD75D4F8BC51CF
:104B60001D76D4F8BC512D0A5D76D4F8BC512D0CBD
:104B70009D76D4F8BC41240EDC762023E1B9D360C5
:104B8000536923F00203536190F83830222B02BF9F
:104B9000536923F40F43536190F83830322B0CBF24
:104BA0001223012380F83830FBF74AFC70BDD4F89B
:104BB000B051ED085D60AEE71361536923F0100357
:104BC000E1E7000003685A69D10770B5044624D5AF
:104BD0009E68524D9A6852499868B54302EA0102AC
:104BE00004D08A4202D04F4A824316D15A6922F039
:104BF00001025A6194F83820122A02BF5A6922F43D
:104C00000F425A6194F83830322B0CBF2223012313
:104C100084F838302046FFF76CFF2368DA685B6958
:104C2000920705D09B0703D500212046FFF762FFBE
:104C300023681A695B69960705D0DD0603D5012153
:104C40002046FFF757FF2368986959695A69C007DA
:104C500007D5CE0505D5150442BFE26B42F001022F
:104C6000E263986959695A69800707D5890505D5AE
:104C7000120442BFE26B42F00202E2639869596992
:104C80005A69460707D54D0505D5100442BFE26BAA
:104C900042F00402E263986959695A6910F0700F92
:104CA00013D0090511D512040FD59A6902F07002CC
:104CB000402A2AD014D8202A1FD0302A21D0102AE6
:104CC00016D09A6922F070029A61E26B3AB104221E
:104CD0005A60012384F838302046FBF7FBFB70BD97
:104CE000502A16D0602AECD1E26B42F4807202E0C6
:104CF000E26B42F00802E263E3E7E26B42F010028B
:104D0000F9E7E26B42F02002F5E7E26B42F0400285
:104D1000F1E7E26B42F08002EDE700BF0300000420
:104D20000003000800000310C06B70470749CA6801
:104D300022F4E0620302120403F4E063120C134352
:104D400043F0BF6343F40033CB60704700ED00E0F5
:104D5000164B30B5DC68C4F30224C4F10703251DEB
:104D6000042B28BF0423062D4FF0FF3505FA03F36B
:104D70008CBF033C002421EA0303A34005FA04F49A
:104D800022EA0402002843EA0203ACBF00F16040BB
:104D9000074A4FEA0313B8BF00F00F00DBB2AABF07
:104DA00000F56140135480F8003330BD00ED00E0A1
:104DB00014ED00E0002808DB4209012300F01F0089
:104DC00003FA00F0014B43F82200704700E100E0D5
:104DD0000138B0F1807F0BD24FF0E023054A5861D3
:104DE000F02182F823100020072298611A61704791
:104DF0000120704700ED00E04FF0E02304281A691D
:104E00000CBF42F0040222F004021A61704770479E
:104E100008B5FFF7FCFF08BD036810B5084C024653
:104E2000D9B210391820B1FBF0F0205CD06523F422
:104E30007F7020F003005F2988BF0430906510BDAB
:104E4000849F000870B50446FFF768FC0546002CF7
:104E500072D0002384F834302268022384F835307D
:104E6000136823F00103136021680B68DA072DD45F
:104E70000B68324DA0691D40D4E901231343E26859
:104E800013432269134362691343E26903431343E3
:104E9000226A13432B43656A042D02BFD4E90B2613
:104EA000324313430B604A69042D22F0070242EAA1
:104EB000050233D1A36A1A4398B9012B22D0022BE1
:104EC00000D05BBBE36ADB0128D51FE0FFF726FCBF
:104ED000401B0528C8D920236365032084F83500CA
:104EE00070BDB0F5005F15D1032B17D801A050F8A5
:104EF00023F000BF0D4F0008C54E00080D4F0008FD
:104F0000054F0008E36AB3F1C07F07D14023636512
:104F10000120E3E7022BF9D9032BD3D04A612046C5
:104F2000FFF77AFFE26D3F23934083600020012367
:104F3000606584F83530D3E70120D1E73F8010F079
:104F400090F83530022B03D0802343650120704751
:104F50000268052380F83530136823F001031360DD
:104F6000002070472DE9F74FDFF8B4816D4ADFF874
:104F7000B89100230C6801279F4007EA040537EA2F
:104F8000040440F0B9804C6824F0100ABAF1020F12
:104F900016D14FEAD30E00EB8E0E03F0070BDEF8AE
:104FA00020604FEA8B0B4FF00F0C0CFA0BFC26EA3B
:104FB0000C0C0E6906FA0BF646EA0C06CEF82060D9
:104FC000D0F800B04FEA430E4FF0030C0CFA0EFC81
:104FD0002BEA0C0B6FEA0C0604F0030C0CFA0EFC27
:104FE0000AF1FF3A4CEA0B0CBAF1010FC0F800C00D
:104FF00016D8D0F808C0D1F80CA006EA0C0C0AFAB2
:105000000EFA4AEA0C0CC0F808C0D0F804C02CEA2A
:105010000707C4F3001C0CFA03FC4CEA07074760BF
:10502000C76837408E6806FA0EF63E43C660E60053
:1050300062D500260196D8F8447047F48047C8F836
:105040004470D8F8447007F480470197019F23F01B
:10505000030707F1804707F59C3703F0030ED7F8E5
:1050600008A04FEA8E0E4FF00F0C0CFA0EFC2AEA45
:105070000C0CDFF8B8A050451DD006F1804606F5AF
:105080000136B0423FD006F58066B0423DD006F50D
:105090008066B0423BD006F58066B04239D04845C4
:1050A00039D006F50066B04237D006F58066B042CA
:1050B0000CBF0726082606FA0EF646EA0C06BE6066
:1050C0001668EF4314F4803F0CBF3E402E43166039
:1050D000566814F4003F0CBF3E402E43566096685D
:1050E00014F4801F0CBF3E402E439660D668A40285
:1050F00054BF3E402E43D6600133102B7FF43AAFAD
:1051000003B0BDE8F08F0126D5E70226D3E70326DA
:10511000D1E70426CFE70526CDE70626CBE700BF7B
:1051200000380240003C01400014024000000240F0
:105130000368F7B5DD0704463BD42368980700F100
:105140008D8023681E0700F1D88023685D072AD56B
:1051500000230193924B934D1A6C42F080521A64D3
:105160001B6C03F080530193019B2B6843F4807305
:105170002B60FFF7D3FA06462B68DA0540F1E18091
:10518000A368874D012B40F0E3802B6F43F00103B0
:105190002B67FFF7C3FA824E054641F28837336F1B
:1051A0009B0740F1F680A269002A40F0FF800020B2
:1051B00015E07B4B9A6802F00C02042A07D09A682B
:1051C00002F00C02082A0CD15A68510209D5744B1E
:1051D0001B689A03B1D56368002BAED1012003B0E0
:1051E000F0BD6268B2F5803F13D11A6842F4803294
:1051F0001A60FFF793FA6A4E054641F28837336822
:105200009B039AD4FFF78AFA401BB842F7D90320D0
:10521000E5E7634DB2F5A02F2B6807D143F4802357
:105220002B602B6843F480332B60E2E723F4803358
:105230002B602B6823F480232B60002AD9D1FFF741
:105240006DFA41F2883706462B6898037FF575AFF3
:10525000FFF764FA801BB842F6D9D8E7504B9A683A
:1052600012F00C0F07D09A6802F00C02082A16D12F
:105270005B68590213D44A490B689A0702D5E36860
:10528000012BABD10868F82393FAA3F3B3FA83F2A6
:105290002369934020F0F80213430B6051E7E26862
:1052A000414BDAB101221A60FFF738FA3C4D06464D
:1052B0002B689B070CD52968F82393FAA3F3B3FA5C
:1052C00083F22369934021F0F80213432B6038E7FF
:1052D000FFF724FA801B0228EAD998E71A60FFF743
:1052E0001DFA2F4E054633689F077FF52AAFFFF75B
:1052F00015FA401B0228F6D989E762692A4B82B168
:105300000122C3F8802EFFF709FA254E0546736F78
:1053100098073FF51AAFFFF701FA401B0228F6D9AC
:1053200075E7C3F8802EFFF7F9F91D4E0546736F38
:1053300099077FF50AAFFFF7F1F9401B0228F6D96C
:1053400065E7FFF7EBF9801B02287FF615AF5EE7F4
:10535000052B04D12B6F43F004032B6715E72A6F4D
:1053600022F001022A672A6F22F004022A67002B2A
:105370007FF40FAFFFF7D2F941F2883706462B6F63
:1053800098077FF510AFFFF7C9F9801BB842F6D92F
:105390003DE7FFF7C3F9401BB8427FF600AF36E7A1
:1053A0000038024000700040000047422C4DAB68BE
:1053B00003F00C03082B3FF411AF2A4B022A4FF0E5
:1053C00000021A663ED1FFF7A9F906462B6899013B
:1053D00032D447F6C07696FAA6F64FF44032B6FAC3
:1053E00086F692FAA2F24FF07061B2FA82F091FA68
:1053F000A1F1D4E907321343626AB2401343A26AAF
:105400005208013A82401343E26AB1FA81F102FA8A
:1054100001F10B436B60134B114D01221A66FFF72C
:105420007DF904462B689A013FF5C1AEFFF776F986
:10543000001B0228F6D9EAE6FFF770F9801B022864
:10544000C4D9E4E6FFF76AF904462B689B017FF5AF
:10545000AEAEFFF763F9001B0228F6D9D7E600BF0E
:105460000038024000004742194B9A6802F00C02D3
:10547000042A28D0082A28D15A685968586811F493
:10548000800F02F03F0247F6C07191FAA1F3B3FA20
:1054900083F300EA010020FA03F014BF0D4B0E4B1A
:1054A000B3FBF2F20A4B50435B684FF4403292FA7E
:1054B000A2F2B2FA82F203F44033D34001335B002C
:1054C000B0FBF3F07047034870470348704700BFD4
:1054D0000038024040787D010024F400554B1A68E2
:1054E00002F00F028A422DE9F04104460D462FD307
:1054F0002268960736D4D0073CD44E4B1A6802F087
:105500000F02AA4200F286802268510700F18A80C9
:10551000130707D5484A2169936823F4604343EA97
:10552000C1039360FFF7A0FF434BF0229B6892FA00
:10553000A2F2B2FA82F203F0F003D3403F4AD35C06
:10554000D8403F4B18600F20FFF7B2F8002007E06B
:10555000CAB21A701B6803F00F038B42C8D0012037
:10556000BDE8F0813449A0688B6823F0F003034361
:105570008B60C0E76268304B012A1DD11B6813F4B1
:10558000003FECD02C4EB36823F003031343B36009
:10559000FFF7C4F86368012B074641F2883815D13C
:1055A000B36803F00C03042BA7D0FFF7B7F8C01BB8
:1055B0004045F5D90320D3E7911E01291B6802D885
:1055C00013F0007FDDE713F0020FDAE7022B0AD1B8
:1055D000B36803F00C03082B8FD0FFF79FF8C01BB4
:1055E0004045F5D9E6E7032B0FD1B36803F00C0370
:1055F0000C2B82D0FFF792F8C01B4045F5D9D9E7B4
:10560000FFF78CF8C01B4045D4D8B36813F00C0FDB
:10561000F6D172E7EAB21A701B6803F00F03AB42CF
:105620009DD171E70449E0688B6823F4E05303439C
:105630008B606DE7003C0240003802408C9F000800
:105640000C000020014B1868704700BF0C000020C0
:10565000084B4FF4E0529B6892FAA2F2B2FA82F23F
:1056600003F4E053D340044AD35C044A1068D840A2
:10567000704700BF003802408C9F00080C000020DB
:10568000084B4FF460429B6892FAA2F2B2FA82F29F
:1056900003F46043D340044AD35C044A1068D84002
:1056A000704700BF003802408C9F00080C000020AB
:1056B0000368DA6842F00102DA601A6842F0010217
:1056C0001A600020704770B590F83830012B0446FE
:1056D0004FF002001FD0012384F83830236884F88B
:1056E00039009A6822F47F4222F077029A600A68B1
:1056F000502A5BD02CD8202A00F093800CD8002AA6
:1057000000F08380102A00F086800123002084F8B6
:10571000393084F8380070BD302A00F08880402A83
:10572000F3D14868CE68196A1D6A25F001051D622B
:105730009A6921F00A0122F0F00242EA06120143BE
:105740009A6119629A6822F0700242F047022BE0D7
:10575000B2F5805F25D012D8602A3ED0702AD4D10D
:10576000D1E901529868C9682A4320F47F4042EA8F
:10577000012202439A609A6842F0770214E0B2F57F
:10578000005FC2D1D1E901529868C9682A4320F468
:105790007F4042EA012202439A609A6842F48042C2
:1057A00002E09A6822F007029A60AEE74868CE6885
:1057B000196A1D6A25F001051D629A6921F00A0126
:1057C00022F0F00242EA061201439A6119629A68D5
:1057D00022F0700242F05702E6E7186A4D68CE6880
:1057E00020F01000186299691A6A21F4704122F0C1
:1057F000A00242EA051241EA063199611A629A68EA
:1058000022F0700242F06702CEE79A6822F070023E
:1058100042F00702C8E79A6822F0700242F01702CD
:10582000C2E79A6822F0700242F02702BCE79A6849
:1058300022F0700242F03702B6E7704770477047B7
:1058400003681A69910710B504460ED5DA68920705
:105850000BD56FF002021A61012202769B699B0749
:1058600077D0FDF721FE0023237623681A695007BD
:1058700010D5DA6851070DD56FF004021A610222C3
:1058800022769B6913F4407F204668D0FDF70CFE1A
:105890000023237623681A6912070FD5DA681007E8
:1058A0000CD56FF008021A6104222276DB69990791
:1058B00020465AD0FDF7F8FD0023237623681A69A5
:1058C000D20610D5DA68D0060DD56FF010021A6135
:1058D00008222276DB6913F4407F20464BD0FDF787
:1058E000E3FD0023237623681A69D10708D5DA6817
:1058F000D20705D56FF001021A612046FDF794FD2D
:1059000023681A69100608D5DA68110605D56FF004
:1059100080021A61204600F0FEF923681A695206D7
:1059200008D5DA68500605D56FF040021A612046A6
:10593000FFF785FF23681A69910622D5DA68920677
:105940001FD56FF0200220461A61BDE8104000F01C
:10595000E1B9FFF772FF2046FFF770FF83E7FFF71B
:105960006CFF2046FFF76AFF92E7FFF766FF2046CD
:10597000FFF764FFA0E7FFF760FF2046FFF75EFF39
:10598000AFE710BD2E4A0368904212D0B0F1804FAD
:105990000FD0A2F57C4290420BD002F5806290427B
:1059A00007D002F58062904203D002F5784290421F
:1059B00019D14A6823F070031343214A904229D039
:1059C000B0F1804F26D0A2F57C42904222D002F561
:1059D000806290421ED002F5806290421AD002F599
:1059E0007842904216D0174A904213D002F5806256
:1059F00090420FD002F5806290420BD0A2F598320F
:105A0000904207D002F58062904203D002F5806296
:105A1000904203D1CA6823F44073134303608B6838
:105A2000C3620B688362064B984203D003F5806320
:105A3000984201D10B69036301234361704700BFA2
:105A4000000001400040014010B50446A0B190F8AC
:105A5000393003F0FF021BB980F83820FDF7BAFC9B
:105A60000223206884F83930211DFFF78BFF0123C2
:105A700084F83930002010BD0120FCE710B5044641
:105A8000A0B190F8393003F0FF021BB980F838203C
:105A9000FDF7D2FC0223206884F83930211DFFF77E
:105AA00071FF012384F83930002010BD0120FCE78C
:105AB00010B50446A0B190F8393003F0FF021BB9CD
:105AC00080F83820FDF7D0FC0223206884F83930B4
:105AD000211DFFF757FF012384F83930002010BD46
